{"abi":[{"type":"constructor","inputs":[{"name":"_aavePool","type":"address","internalType":"address"},{"name":"_owner","type":"address","internalType":"address"}],"stateMutability":"nonpayable"},{"type":"function","name":"aavePool","inputs":[],"outputs":[{"name":"","type":"address","internalType":"contract IAavePool"}],"stateMutability":"view"},{"type":"function","name":"addSupportedAsset","inputs":[{"name":"assetAddr","type":"address","internalType":"address"},{"name":"decimals","type":"uint8","internalType":"uint8"},{"name":"supported","type":"bool","internalType":"bool"}],"outputs":[],"stateMutability":"nonpayable"},{"type":"function","name":"addSupportedCurrency","inputs":[{"name":"currency","type":"bytes32","internalType":"bytes32"},{"name":"decimals","type":"uint8","internalType":"uint8"},{"name":"oracle","type":"address","internalType":"address"},{"name":"collateralizationRatio","type":"uint256","internalType":"uint256"},{"name":"liquidationThreshold","type":"uint256","internalType":"uint256"},{"name":"baseRate","type":"uint256","internalType":"uint256"},{"name":"minRate","type":"uint256","internalType":"uint256"},{"name":"maxRate","type":"uint256","internalType":"uint256"},{"name":"sensitivity","type":"uint256","internalType":"uint256"}],"outputs":[],"stateMutability":"nonpayable"},{"type":"function","name":"borrow","inputs":[{"name":"collateralAsset","type":"address","internalType":"address"},{"name":"borrowAmount","type":"uint256","internalType":"uint256"},{"name":"fiatCurrency","type":"bytes32","internalType":"bytes32"}],"outputs":[],"stateMutability":"nonpayable"},{"type":"function","name":"borrows","inputs":[{"name":"","type":"uint256","internalType":"uint256"}],"outputs":[{"name":"borrowId","type":"uint256","internalType":"uint256"},{"name":"owner","type":"address","internalType":"address"},{"name":"borrowedAmount","type":"uint256","internalType":"uint256"},{"name":"collateralAsset","type":"address","internalType":"address"},{"name":"fiatCurrency","type":"bytes32","internalType":"bytes32"},{"name":"totalRepaid","type":"uint256","internalType":"uint256"},{"name":"status","type":"uint8","internalType":"enum Torito.BorrowStatus"}],"stateMutability":"view"},{"type":"function","name":"cancelBorrowRequest","inputs":[{"name":"borrowId","type":"uint256","internalType":"uint256"}],"outputs":[],"stateMutability":"nonpayable"},{"type":"function","name":"cancelBorrowRequests","inputs":[{"name":"borrowIds","type":"uint256[]","internalType":"uint256[]"}],"outputs":[],"stateMutability":"nonpayable"},{"type":"function","name":"convertAssetToCurrency","inputs":[{"name":"currency","type":"bytes32","internalType":"bytes32"},{"name":"assetAmount","type":"uint256","internalType":"uint256"},{"name":"collateralAsset","type":"address","internalType":"address"}],"outputs":[{"name":"","type":"uint256","internalType":"uint256"}],"stateMutability":"view"},{"type":"function","name":"convertCurrencyToAsset","inputs":[{"name":"currency","type":"bytes32","internalType":"bytes32"},{"name":"amount","type":"uint256","internalType":"uint256"},{"name":"collateralAsset","type":"address","internalType":"address"}],"outputs":[{"name":"","type":"uint256","internalType":"uint256"}],"stateMutability":"view"},{"type":"function","name":"dynamicBorrowRate","inputs":[{"name":"currency","type":"bytes32","internalType":"bytes32"},{"name":"collateralAsset","type":"address","internalType":"address"}],"outputs":[{"name":"","type":"uint256","internalType":"uint256"}],"stateMutability":"view"},{"type":"function","name":"getUserHealthFactor","inputs":[{"name":"user","type":"address","internalType":"address"}],"outputs":[{"name":"","type":"uint256","internalType":"uint256"}],"stateMutability":"view"},{"type":"function","name":"getUserTotalCollateralAsset","inputs":[{"name":"user","type":"address","internalType":"address"}],"outputs":[{"name":"","type":"uint256","internalType":"uint256"}],"stateMutability":"view"},{"type":"function","name":"getUserTotalDebtAsset","inputs":[{"name":"user","type":"address","internalType":"address"}],"outputs":[{"name":"","type":"uint256","internalType":"uint256"}],"stateMutability":"view"},{"type":"function","name":"liquidate","inputs":[{"name":"borrowId","type":"uint256","internalType":"uint256"}],"outputs":[],"stateMutability":"nonpayable"},{"type":"function","name":"owner","inputs":[],"outputs":[{"name":"","type":"address","internalType":"address"}],"stateMutability":"view"},{"type":"function","name":"processBorrowRequest","inputs":[{"name":"borrowId","type":"uint256","internalType":"uint256"}],"outputs":[],"stateMutability":"nonpayable"},{"type":"function","name":"processBorrowRequests","inputs":[{"name":"borrowIds","type":"uint256[]","internalType":"uint256[]"}],"outputs":[],"stateMutability":"nonpayable"},{"type":"function","name":"renounceOwnership","inputs":[],"outputs":[],"stateMutability":"nonpayable"},{"type":"function","name":"repayLoan","inputs":[{"name":"borrowId","type":"uint256","internalType":"uint256"},{"name":"repaymentAmount","type":"uint256","internalType":"uint256"}],"outputs":[],"stateMutability":"nonpayable"},{"type":"function","name":"supplies","inputs":[{"name":"","type":"uint256","internalType":"uint256"}],"outputs":[{"name":"supplyId","type":"uint256","internalType":"uint256"},{"name":"owner","type":"address","internalType":"address"},{"name":"scaledBalance","type":"uint256","internalType":"uint256"},{"name":"asset","type":"address","internalType":"address"},{"name":"status","type":"uint8","internalType":"enum Torito.SupplyStatus"}],"stateMutability":"view"},{"type":"function","name":"supply","inputs":[{"name":"asset","type":"address","internalType":"address"},{"name":"amount","type":"uint256","internalType":"uint256"}],"outputs":[],"stateMutability":"nonpayable"},{"type":"function","name":"supportedAssets","inputs":[{"name":"","type":"address","internalType":"address"}],"outputs":[{"name":"assetAddress","type":"address","internalType":"address"},{"name":"decimals","type":"uint8","internalType":"uint8"},{"name":"isSupported","type":"bool","internalType":"bool"}],"stateMutability":"view"},{"type":"function","name":"supportedCurrencies","inputs":[{"name":"","type":"bytes32","internalType":"bytes32"}],"outputs":[{"name":"currency","type":"bytes32","internalType":"bytes32"},{"name":"decimals","type":"uint8","internalType":"uint8"},{"name":"collateralizationRatio","type":"uint256","internalType":"uint256"},{"name":"liquidationThreshold","type":"uint256","internalType":"uint256"},{"name":"oracle","type":"address","internalType":"address"},{"name":"baseRate","type":"uint256","internalType":"uint256"},{"name":"minRate","type":"uint256","internalType":"uint256"},{"name":"maxRate","type":"uint256","internalType":"uint256"},{"name":"sensitivity","type":"uint256","internalType":"uint256"},{"name":"borrowIndex","type":"uint256","internalType":"uint256"},{"name":"lastUpdateBorrowIndex","type":"uint256","internalType":"uint256"}],"stateMutability":"view"},{"type":"function","name":"transferOwnership","inputs":[{"name":"newOwner","type":"address","internalType":"address"}],"outputs":[],"stateMutability":"nonpayable"},{"type":"function","name":"updateBorrowIndex","inputs":[{"name":"currency","type":"bytes32","internalType":"bytes32"},{"name":"collateralAsset","type":"address","internalType":"address"}],"outputs":[],"stateMutability":"nonpayable"},{"type":"function","name":"updateSupportedAsset","inputs":[{"name":"assetAddr","type":"address","internalType":"address"},{"name":"decimals","type":"uint8","internalType":"uint8"},{"name":"supported","type":"bool","internalType":"bool"}],"outputs":[],"stateMutability":"nonpayable"},{"type":"function","name":"updateSupportedCurrency","inputs":[{"name":"currency","type":"bytes32","internalType":"bytes32"},{"name":"decimals","type":"uint8","internalType":"uint8"},{"name":"oracle","type":"address","internalType":"address"},{"name":"collateralizationRatio","type":"uint256","internalType":"uint256"},{"name":"liquidationThreshold","type":"uint256","internalType":"uint256"},{"name":"baseRate","type":"uint256","internalType":"uint256"},{"name":"minRate","type":"uint256","internalType":"uint256"},{"name":"maxRate","type":"uint256","internalType":"uint256"},{"name":"sensitivity","type":"uint256","internalType":"uint256"}],"outputs":[],"stateMutability":"nonpayable"},{"type":"function","name":"userBorrows","inputs":[{"name":"","type":"address","internalType":"address"},{"name":"","type":"uint256","internalType":"uint256"}],"outputs":[{"name":"","type":"uint256","internalType":"uint256"}],"stateMutability":"view"},{"type":"function","name":"userNonces","inputs":[{"name":"","type":"address","internalType":"address"}],"outputs":[{"name":"","type":"uint256","internalType":"uint256"}],"stateMutability":"view"},{"type":"function","name":"userSupplies","inputs":[{"name":"","type":"address","internalType":"address"},{"name":"","type":"uint256","internalType":"uint256"}],"outputs":[{"name":"","type":"uint256","internalType":"uint256"}],"stateMutability":"view"},{"type":"function","name":"withdrawSupply","inputs":[{"name":"supplyId","type":"uint256","internalType":"uint256"},{"name":"withdrawAmount","type":"uint256","internalType":"uint256"}],"outputs":[],"stateMutability":"nonpayable"},{"type":"event","name":"BorrowCanceled","inputs":[{"name":"borrowId","type":"uint256","indexed":true,"internalType":"uint256"},{"name":"user","type":"address","indexed":true,"internalType":"address"},{"name":"currency","type":"bytes32","indexed":false,"internalType":"bytes32"}],"anonymous":false},{"type":"event","name":"BorrowCreated","inputs":[{"name":"borrowId","type":"uint256","indexed":true,"internalType":"uint256"},{"name":"user","type":"address","indexed":true,"internalType":"address"},{"name":"currency","type":"bytes32","indexed":false,"internalType":"bytes32"},{"name":"amount","type":"uint256","indexed":false,"internalType":"uint256"}],"anonymous":false},{"type":"event","name":"BorrowProcessed","inputs":[{"name":"borrowId","type":"uint256","indexed":true,"internalType":"uint256"},{"name":"user","type":"address","indexed":true,"internalType":"address"},{"name":"currency","type":"bytes32","indexed":false,"internalType":"bytes32"}],"anonymous":false},{"type":"event","name":"BorrowUpdated","inputs":[{"name":"borrowId","type":"uint256","indexed":true,"internalType":"uint256"},{"name":"user","type":"address","indexed":true,"internalType":"address"},{"name":"currency","type":"bytes32","indexed":false,"internalType":"bytes32"},{"name":"amount","type":"uint256","indexed":false,"internalType":"uint256"},{"name":"totalAmount","type":"uint256","indexed":false,"internalType":"uint256"}],"anonymous":false},{"type":"event","name":"CollateralLiquidated","inputs":[{"name":"borrowId","type":"uint256","indexed":true,"internalType":"uint256"},{"name":"user","type":"address","indexed":true,"internalType":"address"},{"name":"collateralAmount","type":"uint256","indexed":false,"internalType":"uint256"}],"anonymous":false},{"type":"event","name":"LoanRepaid","inputs":[{"name":"borrowId","type":"uint256","indexed":true,"internalType":"uint256"},{"name":"user","type":"address","indexed":true,"internalType":"address"},{"name":"currency","type":"bytes32","indexed":false,"internalType":"bytes32"},{"name":"amount","type":"uint256","indexed":false,"internalType":"uint256"},{"name":"remainingAmount","type":"uint256","indexed":false,"internalType":"uint256"}],"anonymous":false},{"type":"event","name":"OwnershipTransferred","inputs":[{"name":"previousOwner","type":"address","indexed":true,"internalType":"address"},{"name":"newOwner","type":"address","indexed":true,"internalType":"address"}],"anonymous":false},{"type":"event","name":"SupplyCreated","inputs":[{"name":"supplyId","type":"uint256","indexed":true,"internalType":"uint256"},{"name":"user","type":"address","indexed":true,"internalType":"address"},{"name":"token","type":"address","indexed":false,"internalType":"address"},{"name":"amount","type":"uint256","indexed":false,"internalType":"uint256"}],"anonymous":false},{"type":"event","name":"SupplyDeposited","inputs":[{"name":"supplyId","type":"uint256","indexed":true,"internalType":"uint256"},{"name":"user","type":"address","indexed":true,"internalType":"address"},{"name":"token","type":"address","indexed":false,"internalType":"address"},{"name":"amount","type":"uint256","indexed":false,"internalType":"uint256"},{"name":"totalAmount","type":"uint256","indexed":false,"internalType":"uint256"}],"anonymous":false},{"type":"event","name":"SupplyWithdrawn","inputs":[{"name":"supplyId","type":"uint256","indexed":true,"internalType":"uint256"},{"name":"user","type":"address","indexed":true,"internalType":"address"},{"name":"token","type":"address","indexed":false,"internalType":"address"},{"name":"amount","type":"uint256","indexed":false,"internalType":"uint256"},{"name":"totalAmount","type":"uint256","indexed":false,"internalType":"uint256"}],"anonymous":false},{"type":"error","name":"OwnableInvalidOwner","inputs":[{"name":"owner","type":"address","internalType":"address"}]},{"type":"error","name":"OwnableUnauthorizedAccount","inputs":[{"name":"account","type":"address","internalType":"address"}]}],"bytecode":{"object":"0x608060405234801561000f575f5ffd5b50604051615a14380380615a1483398181016040528101906100319190610218565b805f73ffffffffffffffffffffffffffffffffffffffff168173ffffffffffffffffffffffffffffffffffffffff16036100a2575f6040517f1e4fbdf70000000000000000000000000000000000000000000000000000000081526004016100999190610265565b60405180910390fd5b6100b1816100f960201b60201c565b508160085f6101000a81548173ffffffffffffffffffffffffffffffffffffffff021916908373ffffffffffffffffffffffffffffffffffffffff160217905550505061027e565b5f5f5f9054906101000a900473ffffffffffffffffffffffffffffffffffffffff169050815f5f6101000a81548173ffffffffffffffffffffffffffffffffffffffff021916908373ffffffffffffffffffffffffffffffffffffffff1602179055508173ffffffffffffffffffffffffffffffffffffffff168173ffffffffffffffffffffffffffffffffffffffff167f8be0079c531659141344cd1fd0a4f28419497f9722a3daafe3b4186f6b6457e060405160405180910390a35050565b5f5ffd5b5f73ffffffffffffffffffffffffffffffffffffffff82169050919050565b5f6101e7826101be565b9050919050565b6101f7816101dd565b8114610201575f5ffd5b50565b5f81519050610212816101ee565b92915050565b5f5f6040838503121561022e5761022d6101ba565b5b5f61023b85828601610204565b925050602061024c85828601610204565b9150509250929050565b61025f816101dd565b82525050565b5f6020820190506102785f830184610256565b92915050565b6157898061028b5f395ff3fe608060405234801561000f575f5ffd5b50600436106101e3575f3560e01c806378de7eee1161010d578063aee582f9116100a0578063ccf93ab11161006f578063ccf93ab1146105e7578063e9d1f8df14610603578063f2b9fdb81461061f578063f2fde38b1461063b576101e3565b8063aee582f91461054d578063b696bdf914610569578063bd81579e14610599578063ca9caa39146105cb576101e3565b806394e98074116100dc57806394e98074146104db578063a03e4bc3146104f7578063a5e8759914610515578063aa70059f14610531576101e3565b806378de7eee146104415780638a700b53146104715780638c47ade61461048d5780638da5cb5b146104bd576101e3565b80633db1763f1161018557806350f3ea351161015457806350f3ea35146103bb57806365affb9b146103d7578063715018a61461040757806371cbfc9814610411576101e3565b80633db1763f14610319578063415f1240146103535780634c1cd84a1461036f5780634ef17a671461038b576101e3565b806326f1a1fd116101c157806326f1a1fd146102695780632aa214201461029d5780632f7801f4146102cd5780633670172d146102fd576101e3565b806309db647b146101e757806314c307e314610217578063191e9d7c14610233575b5f5ffd5b61020160048036038101906101fc9190613fed565b610657565b60405161020e919061404c565b60405180910390f35b610231600480360381019061022c9190614065565b61086b565b005b61024d60048036038101906102489190614065565b6109b6565b6040516102609796959493929190614121565b60405180910390f35b610283600480360381019061027e9190614065565b610a3e565b6040516102949594939291906141d4565b60405180910390f35b6102b760048036038101906102b29190614225565b610abb565b6040516102c4919061404c565b60405180910390f35b6102e760048036038101906102e29190614225565b610ace565b6040516102f4919061404c565b60405180910390f35b61031760048036038101906103129190614250565b610ae3565b005b610333600480360381019061032e919061428e565b610b96565b60405161034a9b9a999897969594939291906142d4565b60405180910390f35b61036d60048036038101906103689190614065565b610c17565b005b610389600480360381019061038491906143a7565b610fd9565b005b6103a560048036038101906103a0919061446b565b611277565b6040516103b2919061404c565b60405180910390f35b6103d560048036038101906103d091906144de565b6112a2565b005b6103f160048036038101906103ec9190613fed565b6113a8565b6040516103fe919061404c565b60405180910390f35b61040f61157d565b005b61042b60048036038101906104269190614225565b611590565b604051610438919061404c565b60405180910390f35b61045b60048036038101906104569190614225565b611604565b604051610468919061404c565b60405180910390f35b61048b6004803603810190610486919061452e565b611615565b005b6104a760048036038101906104a29190614250565b611955565b6040516104b4919061404c565b60405180910390f35b6104c5611af3565b6040516104d2919061456c565b60405180910390f35b6104f560048036038101906104f091906145e6565b611b1a565b005b6104ff611dcd565b60405161050c919061468c565b60405180910390f35b61052f600480360381019061052a91906144de565b611df2565b005b61054b600480360381019061054691906143a7565b611f7a565b005b610567600480360381019061056291906146a5565b6121f3565b005b610583600480360381019061057e919061446b565b612877565b604051610590919061404c565b60405180910390f35b6105b360048036038101906105ae9190614225565b6128a2565b6040516105c293929190614704565b60405180910390f35b6105e560048036038101906105e091906145e6565b6128ff565b005b61060160048036038101906105fc919061452e565b612bb2565b005b61061d60048036038101906106189190614065565b61301f565b005b6106396004803603810190610634919061446b565b61316a565b005b61065560048036038101906106509190614225565b613771565b005b5f5f60065f8681526020019081526020015f2090505f5f1b815f0154036106b3576040517f08c379a00000000000000000000000000000000000000000000000000000000081526004016106aa90614793565b60405180910390fd5b5f816004015f9054906101000a900473ffffffffffffffffffffffffffffffffffffffff1673ffffffffffffffffffffffffffffffffffffffff166331d98b3f876040518263ffffffff1660e01b815260040161071091906147b1565b602060405180830381865afa15801561072b573d5f5f3e3d5ffd5b505050506040513d601f19601f8201168201806040525081019061074f91906147de565b90506107906040518060400160405280600581526020017f7072696365000000000000000000000000000000000000000000000000000000815250826137f5565b5f81116107d2576040517f08c379a00000000000000000000000000000000000000000000000000000000081526004016107c990614853565b60405180910390fd5b5f826001015f9054906101000a900460ff1690505f60055f8773ffffffffffffffffffffffffffffffffffffffff1673ffffffffffffffffffffffffffffffffffffffff1681526020019081526020015f205f0160149054906101000a900460ff1690505f8382600a61084591906149cd565b896108509190614a17565b61085a9190614a85565b905080955050505050509392505050565b610873613891565b8060016005811115610888576108876140ae565b5b60025f8381526020019081526020015f206006015f9054906101000a900460ff1660058111156108bb576108ba6140ae565b5b146108fb576040517f08c379a00000000000000000000000000000000000000000000000000000000081526004016108f290614aff565b60405180910390fd5b5f60025f8481526020019081526020015f2090506002816006015f6101000a81548160ff02191690836005811115610936576109356140ae565b5b0217905550806001015f9054906101000a900473ffffffffffffffffffffffffffffffffffffffff1673ffffffffffffffffffffffffffffffffffffffff16837ff2bea4493a3cabafb55f3aff5a1264edd4e0ea0183c2ceb9a39b6d5ca5c1179783600401546040516109a991906147b1565b60405180910390a3505050565b6002602052805f5260405f205f91509050805f015490806001015f9054906101000a900473ffffffffffffffffffffffffffffffffffffffff1690806002015490806003015f9054906101000a900473ffffffffffffffffffffffffffffffffffffffff1690806004015490806005015490806006015f9054906101000a900460ff16905087565b6001602052805f5260405f205f91509050805f015490806001015f9054906101000a900473ffffffffffffffffffffffffffffffffffffffff1690806002015490806003015f9054906101000a900473ffffffffffffffffffffffffffffffffffffffff16908060030160149054906101000a900460ff16905085565b5f610ac7825f5f613918565b9050919050565b6007602052805f5260405f205f915090505481565b5f60065f8481526020019081526020015f2090505f81600a015442610b089190614b1d565b90505f8103610b18575050610b92565b5f610b238585611955565b90506b033b2e3c9fd0803ce80000006301e133808383610b439190614a17565b610b4d9190614a85565b6b033b2e3c9fd0803ce8000000610b649190614b50565b8460090154610b739190614a17565b610b7d9190614a85565b83600901819055504283600a01819055505050505b5050565b6006602052805f5260405f205f91509050805f015490806001015f9054906101000a900460ff1690806002015490806003015490806004015f9054906101000a900473ffffffffffffffffffffffffffffffffffffffff169080600501549080600601549080600701549080600801549080600901549080600a015490508b565b8060026005811115610c2c57610c2b6140ae565b5b60025f8381526020019081526020015f206006015f9054906101000a900460ff166005811115610c5f57610c5e6140ae565b5b14610c9f576040517f08c379a0000000000000000000000000000000000000000000000000000000008152600401610c9690614bcd565b60405180910390fd5b5f60025f8481526020019081526020015f2090505f816001015f9054906101000a900473ffffffffffffffffffffffffffffffffffffffff16826003015f9054906101000a900473ffffffffffffffffffffffffffffffffffffffff16604051602001610d0d929190614c30565b604051602081830303815290604052805190602001205f1c90505f60015f8381526020019081526020015f2090505f60085f9054906101000a900473ffffffffffffffffffffffffffffffffffffffff1673ffffffffffffffffffffffffffffffffffffffff1663d15e0053856003015f9054906101000a900473ffffffffffffffffffffffffffffffffffffffff166040518263ffffffff1660e01b8152600401610db9919061456c565b602060405180830381865afa158015610dd4573d5f5f3e3d5ffd5b505050506040513d601f19601f82011682018060405250810190610df891906147de565b90505f6b033b2e3c9fd0803ce8000000828460020154610e189190614a17565b610e229190614a85565b90505f60065f876004015481526020019081526020015f206003015490505f86600501546b033b2e3c9fd0803ce800000060065f8a6004015481526020019081526020015f20600901548960020154610e7b9190614a17565b610e859190614a85565b610e8f9190614b1d565b90505f610ec48860040154838a6003015f9054906101000a900473ffffffffffffffffffffffffffffffffffffffff16610657565b90505f81670de0b6b3a764000086610edc9190614a17565b610ee69190614a85565b9050838110610f2a576040517f08c379a0000000000000000000000000000000000000000000000000000000008152600401610f2190614ca5565b60405180910390fd5b6005896006015f6101000a81548160ff02191690836005811115610f5157610f506140ae565b5b0217905550886001015f9054906101000a900473ffffffffffffffffffffffffffffffffffffffff1673ffffffffffffffffffffffffffffffffffffffff168b7fcafca847a6c6645c7dd7bb55a47759cd884f49bd6e8c273f4ee701e8b81bcda08960020154604051610fc4919061404c565b60405180910390a35050505050505050505050565b610fe1613891565b5f5f1b60065f8b81526020019081526020015f205f015403611038576040517f08c379a000000000000000000000000000000000000000000000000000000000815260040161102f90614793565b60405180910390fd5b670de0b6b3a7640000861015611083576040517f08c379a000000000000000000000000000000000000000000000000000000000815260040161107a90614d0d565b60405180910390fd5b670de0b6b3a76400008510156110ce576040517f08c379a00000000000000000000000000000000000000000000000000000000081526004016110c590614d75565b60405180910390fd5b85851115611111576040517f08c379a000000000000000000000000000000000000000000000000000000000815260040161110890614ddd565b60405180910390fd5b60128860ff161115611158576040517f08c379a000000000000000000000000000000000000000000000000000000000815260040161114f90614e45565b60405180910390fd5b8760065f8b81526020019081526020015f206001015f6101000a81548160ff021916908360ff1602179055508660065f8b81526020019081526020015f206004015f6101000a81548173ffffffffffffffffffffffffffffffffffffffff021916908373ffffffffffffffffffffffffffffffffffffffff1602179055508560065f8b81526020019081526020015f20600201819055508460065f8b81526020019081526020015f20600301819055508360065f8b81526020019081526020015f20600501819055508260065f8b81526020019081526020015f20600601819055508160065f8b81526020019081526020015f20600701819055508060065f8b81526020019081526020015f2060080181905550505050505050505050565b6003602052815f5260405f208181548110611290575f80fd5b905f5260205f20015f91509150505481565b6112aa613891565b60405180606001604052808473ffffffffffffffffffffffffffffffffffffffff1681526020018360ff16815260200182151581525060055f8573ffffffffffffffffffffffffffffffffffffffff1673ffffffffffffffffffffffffffffffffffffffff1681526020019081526020015f205f820151815f015f6101000a81548173ffffffffffffffffffffffffffffffffffffffff021916908373ffffffffffffffffffffffffffffffffffffffff1602179055506020820151815f0160146101000a81548160ff021916908360ff1602179055506040820151815f0160156101000a81548160ff021916908315150217905550905050505050565b5f5f60065f8681526020019081526020015f2090505f5f1b815f015403611404576040517f08c379a00000000000000000000000000000000000000000000000000000000081526004016113fb90614793565b60405180910390fd5b5f816004015f9054906101000a900473ffffffffffffffffffffffffffffffffffffffff1673ffffffffffffffffffffffffffffffffffffffff166331d98b3f876040518263ffffffff1660e01b815260040161146191906147b1565b602060405180830381865afa15801561147c573d5f5f3e3d5ffd5b505050506040513d601f19601f820116820180604052508101906114a091906147de565b90505f81116114e4576040517f08c379a00000000000000000000000000000000000000000000000000000000081526004016114db90614853565b60405180910390fd5b5f826001015f9054906101000a900460ff1690505f60055f8773ffffffffffffffffffffffffffffffffffffffff1673ffffffffffffffffffffffffffffffffffffffff1681526020019081526020015f205f0160149054906101000a900460ff1690505f81600a61155691906149cd565b84896115629190614a17565b61156c9190614a85565b905080955050505050509392505050565b611585613891565b61158e5f613be4565b565b5f5f61159b83613ca5565b90505f81036115cd577fffffffffffffffffffffffffffffffffffffffffffffffffffffffffffffffff9150506115ff565b5f6115d9845f5f613918565b905081670de0b6b3a7640000826115f09190614a17565b6115fa9190614a85565b925050505b919050565b5f61160e82613ca5565b9050919050565b816002600581111561162a576116296140ae565b5b60025f8381526020019081526020015f206006015f9054906101000a900460ff16600581111561165d5761165c6140ae565b5b1461169d576040517f08c379a000000000000000000000000000000000000000000000000000000000815260040161169490614bcd565b60405180910390fd5b5f60025f8581526020019081526020015f2090503373ffffffffffffffffffffffffffffffffffffffff16816001015f9054906101000a900473ffffffffffffffffffffffffffffffffffffffff1673ffffffffffffffffffffffffffffffffffffffff1614611742576040517f08c379a000000000000000000000000000000000000000000000000000000000815260040161173990614ead565b60405180910390fd5b6117738160040154826003015f9054906101000a900473ffffffffffffffffffffffffffffffffffffffff16610ae3565b5f81600501546b033b2e3c9fd0803ce800000060065f856004015481526020019081526020015f206009015484600201546117ae9190614a17565b6117b89190614a85565b6117c29190614b1d565b905080841115611807576040517f08c379a00000000000000000000000000000000000000000000000000000000081526004016117fe90614f15565b60405180910390fd5b83826005015f82825461181a9190614b50565b92505081905550808260050154106118e7576004826006015f6101000a81548160ff02191690836005811115611853576118526140ae565b5b02179055505f33836003015f9054906101000a900473ffffffffffffffffffffffffffffffffffffffff1660405160200161188f929190614c30565b604051602081830303815290604052805190602001205f1c90506001805f8381526020019081526020015f2060030160146101000a81548160ff021916908360018111156118e0576118df6140ae565b5b0217905550505b5f84826118f49190614b1d565b90503373ffffffffffffffffffffffffffffffffffffffff16867f7286470d0bd901fa4ff8d062b3b5ce502e61f2a6cd10fd91e0924e0f19f6ff968560040154888560405161194593929190614f33565b60405180910390a3505050505050565b5f5f60065f8581526020019081526020015f2090505f73ffffffffffffffffffffffffffffffffffffffff16816004015f9054906101000a900473ffffffffffffffffffffffffffffffffffffffff1673ffffffffffffffffffffffffffffffffffffffff16036119cd578060050154915050611aed565b5f6119e4825f0154670de0b6b3a764000086610657565b90505f81036119fb57816005015492505050611aed565b5f670de0b6b3a76400008210611a5757670de0b6b3a76400008360080154670de0b6b3a764000084611a2d9190614b1d565b611a379190614a17565b611a419190614a85565b8360050154611a509190614b50565b9050611aba565b5f670de0b6b3a7640000846008015484670de0b6b3a7640000611a7a9190614b1d565b611a849190614a17565b611a8e9190614a85565b905080846005015411611aa5578360060154611ab6565b808460050154611ab59190614b1d565b5b9150505b82600701548111611ae15782600601548110611ad65780611adc565b82600601545b611ae7565b82600701545b93505050505b92915050565b5f5f5f9054906101000a900473ffffffffffffffffffffffffffffffffffffffff16905090565b611b22613891565b5f8282905011611b67576040517f08c379a0000000000000000000000000000000000000000000000000000000008152600401611b5e90614fb2565b60405180910390fd5b6032828290501115611bae576040517f08c379a0000000000000000000000000000000000000000000000000000000008152600401611ba59061501a565b60405180910390fd5b5f5f90505b82829050811015611dc8575f838383818110611bd257611bd1615038565b5b9050602002013590505f73ffffffffffffffffffffffffffffffffffffffff1660025f8381526020019081526020015f206001015f9054906101000a900473ffffffffffffffffffffffffffffffffffffffff1673ffffffffffffffffffffffffffffffffffffffff1603611c7c576040517f08c379a0000000000000000000000000000000000000000000000000000000008152600401611c73906150af565b60405180910390fd5b60016005811115611c9057611c8f6140ae565b5b60025f8381526020019081526020015f206006015f9054906101000a900460ff166005811115611cc357611cc26140ae565b5b14611d03576040517f08c379a0000000000000000000000000000000000000000000000000000000008152600401611cfa90615117565b60405180910390fd5b5f60025f8381526020019081526020015f2090506003816006015f6101000a81548160ff02191690836005811115611d3e57611d3d6140ae565b5b0217905550806001015f9054906101000a900473ffffffffffffffffffffffffffffffffffffffff1673ffffffffffffffffffffffffffffffffffffffff16827f06a14447972b0705199ddcccd2bee9da400d89b714145ced61cf7beba664f9828360040154604051611db191906147b1565b60405180910390a350508080600101915050611bb3565b505050565b60085f9054906101000a900473ffffffffffffffffffffffffffffffffffffffff1681565b611dfa613891565b5f73ffffffffffffffffffffffffffffffffffffffff1660055f8573ffffffffffffffffffffffffffffffffffffffff1673ffffffffffffffffffffffffffffffffffffffff1681526020019081526020015f205f015f9054906101000a900473ffffffffffffffffffffffffffffffffffffffff1673ffffffffffffffffffffffffffffffffffffffff1603611ec6576040517f08c379a0000000000000000000000000000000000000000000000000000000008152600401611ebd9061517f565b60405180910390fd5b8160055f8573ffffffffffffffffffffffffffffffffffffffff1673ffffffffffffffffffffffffffffffffffffffff1681526020019081526020015f205f0160146101000a81548160ff021916908360ff1602179055508060055f8573ffffffffffffffffffffffffffffffffffffffff1673ffffffffffffffffffffffffffffffffffffffff1681526020019081526020015f205f0160156101000a81548160ff021916908315150217905550505050565b611f82613891565b670de0b6b3a7640000861015611fcd576040517f08c379a0000000000000000000000000000000000000000000000000000000008152600401611fc490614d0d565b60405180910390fd5b670de0b6b3a7640000851015612018576040517f08c379a000000000000000000000000000000000000000000000000000000000815260040161200f90614d75565b60405180910390fd5b8585111561205b576040517f08c379a000000000000000000000000000000000000000000000000000000000815260040161205290614ddd565b60405180910390fd5b60128860ff1611156120a2576040517f08c379a000000000000000000000000000000000000000000000000000000000815260040161209990614e45565b60405180910390fd5b6040518061016001604052808a81526020018960ff1681526020018781526020018681526020018873ffffffffffffffffffffffffffffffffffffffff1681526020018581526020018481526020018381526020018281526020016b033b2e3c9fd0803ce800000081526020014281525060065f8b81526020019081526020015f205f820151815f01556020820151816001015f6101000a81548160ff021916908360ff16021790555060408201518160020155606082015181600301556080820151816004015f6101000a81548173ffffffffffffffffffffffffffffffffffffffff021916908373ffffffffffffffffffffffffffffffffffffffff16021790555060a0820151816005015560c0820151816006015560e082015181600701556101008201518160080155610120820151816009015561014082015181600a0155905050505050505050505050565b5f5f1b60065f8381526020019081526020015f205f01540361224a576040517f08c379a000000000000000000000000000000000000000000000000000000000815260040161224190614793565b60405180910390fd5b6122548184610ae3565b5f3384604051602001612268929190614c30565b604051602081830303815290604052805190602001205f1c90505f73ffffffffffffffffffffffffffffffffffffffff1660015f8381526020019081526020015f206001015f9054906101000a900473ffffffffffffffffffffffffffffffffffffffff1673ffffffffffffffffffffffffffffffffffffffff1603612323576040517f08c379a000000000000000000000000000000000000000000000000000000000815260040161231a906151e7565b60405180910390fd5b600180811115612336576123356140ae565b5b60015f8381526020019081526020015f2060030160149054906101000a900460ff16600181111561236a576123696140ae565b5b146123aa576040517f08c379a00000000000000000000000000000000000000000000000000000000081526004016123a19061524f565b60405180910390fd5b5f60015f8381526020019081526020015f2090505f6123ca848688610657565b90505f670de0b6b3a764000060065f8781526020019081526020015f2060020154836123f69190614a17565b6124009190614a85565b90506124416040518060400160405280601081526020017f626f72726f7756616c7565417373657400000000000000000000000000000000815250836137f5565b6124946040518060400160405280601681526020017f636f6c6c61746572616c697a6174696f6e526174696f0000000000000000000081525060065f8881526020019081526020015f20600201546137f5565b5f60085f9054906101000a900473ffffffffffffffffffffffffffffffffffffffff1673ffffffffffffffffffffffffffffffffffffffff1663d15e0053896040518263ffffffff1660e01b81526004016124ef919061456c565b602060405180830381865afa15801561250a573d5f5f3e3d5ffd5b505050506040513d601f19601f8201168201806040525081019061252e91906147de565b90505f6b033b2e3c9fd0803ce800000082866002015461254e9190614a17565b6125589190614a85565b90506125996040518060400160405280601481526020017f636f6c6c61746572616c56616c75654173736574000000000000000000000000815250826137f5565b6125d86040518060400160405280601781526020017f7265717569726564436f6c6c61746572616c4173736574000000000000000000815250846137f5565b8281101561261b576040517f08c379a0000000000000000000000000000000000000000000000000000000008152600401612612906152b7565b60405180910390fd5b5f338a60075f3373ffffffffffffffffffffffffffffffffffffffff1673ffffffffffffffffffffffffffffffffffffffff1681526020019081526020015f205f81548092919061266b906152d5565b919050556040516020016126819392919061533c565b604051602081830303815290604052805190602001205f1c90505f60025f8381526020019081526020015f20905081815f018190555033816001015f6101000a81548173ffffffffffffffffffffffffffffffffffffffff021916908373ffffffffffffffffffffffffffffffffffffffff1602179055508881600401819055508a816003015f6101000a81548173ffffffffffffffffffffffffffffffffffffffff021916908373ffffffffffffffffffffffffffffffffffffffff1602179055506001816006015f6101000a81548160ff0219169083600581111561276b5761276a6140ae565b5b021790555060065f8a81526020019081526020015f20600901546b033b2e3c9fd0803ce80000008b61279d9190614a17565b6127a79190614a85565b81600201819055505f816005018190555060045f3373ffffffffffffffffffffffffffffffffffffffff1673ffffffffffffffffffffffffffffffffffffffff1681526020019081526020015f2082908060018154018082558091505060019003905f5260205f20015f90919091909150553373ffffffffffffffffffffffffffffffffffffffff16827f6b913b5fc419dfba2d297ffab9dd2864e7c9017fe5c534015b228c182b048d298b8d604051612862929190615378565b60405180910390a35050505050505050505050565b6004602052815f5260405f208181548110612890575f80fd5b905f5260205f20015f91509150505481565b6005602052805f5260405f205f91509050805f015f9054906101000a900473ffffffffffffffffffffffffffffffffffffffff1690805f0160149054906101000a900460ff1690805f0160159054906101000a900460ff16905083565b612907613891565b5f828290501161294c576040517f08c379a000000000000000000000000000000000000000000000000000000000815260040161294390614fb2565b60405180910390fd5b6032828290501115612993576040517f08c379a000000000000000000000000000000000000000000000000000000000815260040161298a9061501a565b60405180910390fd5b5f5f90505b82829050811015612bad575f8383838181106129b7576129b6615038565b5b9050602002013590505f73ffffffffffffffffffffffffffffffffffffffff1660025f8381526020019081526020015f206001015f9054906101000a900473ffffffffffffffffffffffffffffffffffffffff1673ffffffffffffffffffffffffffffffffffffffff1603612a61576040517f08c379a0000000000000000000000000000000000000000000000000000000008152600401612a58906150af565b60405180910390fd5b60016005811115612a7557612a746140ae565b5b60025f8381526020019081526020015f206006015f9054906101000a900460ff166005811115612aa857612aa76140ae565b5b14612ae8576040517f08c379a0000000000000000000000000000000000000000000000000000000008152600401612adf90615117565b60405180910390fd5b5f60025f8381526020019081526020015f2090506002816006015f6101000a81548160ff02191690836005811115612b2357612b226140ae565b5b0217905550806001015f9054906101000a900473ffffffffffffffffffffffffffffffffffffffff1673ffffffffffffffffffffffffffffffffffffffff16827ff2bea4493a3cabafb55f3aff5a1264edd4e0ea0183c2ceb9a39b6d5ca5c117978360040154604051612b9691906147b1565b60405180910390a350508080600101915050612998565b505050565b815f73ffffffffffffffffffffffffffffffffffffffff1660015f8381526020019081526020015f206001015f9054906101000a900473ffffffffffffffffffffffffffffffffffffffff1673ffffffffffffffffffffffffffffffffffffffff1603612c54576040517f08c379a0000000000000000000000000000000000000000000000000000000008152600401612c4b906151e7565b60405180910390fd5b5f60015f8581526020019081526020015f2090503373ffffffffffffffffffffffffffffffffffffffff16816001015f9054906101000a900473ffffffffffffffffffffffffffffffffffffffff1673ffffffffffffffffffffffffffffffffffffffff1614612cf9576040517f08c379a0000000000000000000000000000000000000000000000000000000008152600401612cf0906153e9565b60405180910390fd5b600180811115612d0c57612d0b6140ae565b5b8160030160149054906101000a900460ff166001811115612d3057612d2f6140ae565b5b14612d70576040517f08c379a0000000000000000000000000000000000000000000000000000000008152600401612d679061524f565b60405180910390fd5b612d9e33826003015f9054906101000a900473ffffffffffffffffffffffffffffffffffffffff1685613e69565b612ddd576040517f08c379a0000000000000000000000000000000000000000000000000000000008152600401612dd490615451565b60405180910390fd5b5f60085f9054906101000a900473ffffffffffffffffffffffffffffffffffffffff1673ffffffffffffffffffffffffffffffffffffffff1663d15e0053836003015f9054906101000a900473ffffffffffffffffffffffffffffffffffffffff166040518263ffffffff1660e01b8152600401612e5b919061456c565b602060405180830381865afa158015612e76573d5f5f3e3d5ffd5b505050506040513d601f19601f82011682018060405250810190612e9a91906147de565b9050806b033b2e3c9fd0803ce800000085612eb59190614a17565b612ebf9190614a85565b826002015f828254612ed19190614b1d565b92505081905550816003015f9054906101000a900473ffffffffffffffffffffffffffffffffffffffff1673ffffffffffffffffffffffffffffffffffffffff1663a9059cbb33866040518363ffffffff1660e01b8152600401612f3692919061546f565b6020604051808303815f875af1158015612f52573d5f5f3e3d5ffd5b505050506040513d601f19601f82011682018060405250810190612f7691906154aa565b505f6b033b2e3c9fd0803ce8000000828460020154612f959190614a17565b612f9f9190614a85565b90503373ffffffffffffffffffffffffffffffffffffffff16867f9b428505f66eb97a59c61cf227d2f3f58176d846d5406910e2cc7328f0078a15856003015f9054906101000a900473ffffffffffffffffffffffffffffffffffffffff16888560405161300f939291906154d5565b60405180910390a3505050505050565b613027613891565b806001600581111561303c5761303b6140ae565b5b60025f8381526020019081526020015f206006015f9054906101000a900460ff16600581111561306f5761306e6140ae565b5b146130af576040517f08c379a00000000000000000000000000000000000000000000000000000000081526004016130a690614aff565b60405180910390fd5b5f60025f8481526020019081526020015f2090506003816006015f6101000a81548160ff021916908360058111156130ea576130e96140ae565b5b0217905550806001015f9054906101000a900473ffffffffffffffffffffffffffffffffffffffff1673ffffffffffffffffffffffffffffffffffffffff16837f06a14447972b0705199ddcccd2bee9da400d89b714145ced61cf7beba664f982836004015460405161315d91906147b1565b60405180910390a3505050565b60055f8373ffffffffffffffffffffffffffffffffffffffff1673ffffffffffffffffffffffffffffffffffffffff1681526020019081526020015f205f0160159054906101000a900460ff166131f6576040517f08c379a00000000000000000000000000000000000000000000000000000000081526004016131ed9061517f565b60405180910390fd5b5f8111613238576040517f08c379a000000000000000000000000000000000000000000000000000000000815260040161322f90615554565b60405180910390fd5b8173ffffffffffffffffffffffffffffffffffffffff166323b872dd3330846040518463ffffffff1660e01b815260040161327593929190615572565b6020604051808303815f875af1158015613291573d5f5f3e3d5ffd5b505050506040513d601f19601f820116820180604052508101906132b591906154aa565b505f60085f9054906101000a900473ffffffffffffffffffffffffffffffffffffffff1673ffffffffffffffffffffffffffffffffffffffff1663d15e0053846040518263ffffffff1660e01b8152600401613311919061456c565b602060405180830381865afa15801561332c573d5f5f3e3d5ffd5b505050506040513d601f19601f8201168201806040525081019061335091906147de565b90508273ffffffffffffffffffffffffffffffffffffffff1663095ea7b360085f9054906101000a900473ffffffffffffffffffffffffffffffffffffffff16846040518363ffffffff1660e01b81526004016133ae92919061546f565b6020604051808303815f875af11580156133ca573d5f5f3e3d5ffd5b505050506040513d601f19601f820116820180604052508101906133ee91906154aa565b5060085f9054906101000a900473ffffffffffffffffffffffffffffffffffffffff1673ffffffffffffffffffffffffffffffffffffffff1663617ba0378484305f6040518563ffffffff1660e01b815260040161344f94939291906155ed565b5f604051808303815f87803b158015613466575f5ffd5b505af1158015613478573d5f5f3e3d5ffd5b505050505f3384604051602001613490929190614c30565b604051602081830303815290604052805190602001205f1c90505f60015f8381526020019081526020015f2090505f73ffffffffffffffffffffffffffffffffffffffff16816001015f9054906101000a900473ffffffffffffffffffffffffffffffffffffffff1673ffffffffffffffffffffffffffffffffffffffff16036136af5781815f018190555033816001015f6101000a81548173ffffffffffffffffffffffffffffffffffffffff021916908373ffffffffffffffffffffffffffffffffffffffff16021790555084816003015f6101000a81548173ffffffffffffffffffffffffffffffffffffffff021916908373ffffffffffffffffffffffffffffffffffffffff16021790555060018160030160146101000a81548160ff021916908360018111156135c8576135c76140ae565b5b0217905550826b033b2e3c9fd0803ce8000000856135e69190614a17565b6135f09190614a85565b816002018190555060035f3373ffffffffffffffffffffffffffffffffffffffff1673ffffffffffffffffffffffffffffffffffffffff1681526020019081526020015f2082908060018154018082558091505060019003905f5260205f20015f90919091909150553373ffffffffffffffffffffffffffffffffffffffff16827fe444d2a6f4f32614aa450e0c5369ce74010fb684b174695a9e8aa25ebeeef87687876040516136a292919061546f565b60405180910390a361376a565b826b033b2e3c9fd0803ce8000000856136c89190614a17565b6136d29190614a85565b816002015f8282546136e49190614b50565b925050819055505f6b033b2e3c9fd0803ce80000008483600201546137099190614a17565b6137139190614a85565b90503373ffffffffffffffffffffffffffffffffffffffff16837fdbdd339b6805c74c39b0ed1749123878f43ed527e6ea1f4bacc6ae2563e166a1888885604051613760939291906154d5565b60405180910390a3505b5050505050565b613779613891565b5f73ffffffffffffffffffffffffffffffffffffffff168173ffffffffffffffffffffffffffffffffffffffff16036137e9575f6040517f1e4fbdf70000000000000000000000000000000000000000000000000000000081526004016137e0919061456c565b60405180910390fd5b6137f281613be4565b50565b61388d828260405160240161380b929190615690565b6040516020818303038152906040527fb60e72cc000000000000000000000000000000000000000000000000000000007bffffffffffffffffffffffffffffffffffffffffffffffffffffffff19166020820180517bffffffffffffffffffffffffffffffffffffffffffffffffffffffff8381831617835250505050613ed0565b5050565b613899613eea565b73ffffffffffffffffffffffffffffffffffffffff166138b7611af3565b73ffffffffffffffffffffffffffffffffffffffff1614613916576138da613eea565b6040517f118cdaa700000000000000000000000000000000000000000000000000000000815260040161390d919061456c565b60405180910390fd5b565b5f5f60035f8673ffffffffffffffffffffffffffffffffffffffff1673ffffffffffffffffffffffffffffffffffffffff1681526020019081526020015f2080548060200260200160405190810160405280929190818152602001828054801561399f57602002820191905f5260205f20905b81548152602001906001019080831161398b575b505050505090505f5f90505f5f90505b8251811015613bd7575f8382815181106139cc576139cb615038565b5b602002602001015190505f60015f8381526020019081526020015f2090506001808111156139fd576139fc6140ae565b5b8160030160149054906101000a900460ff166001811115613a2157613a206140ae565b5b03613bc8575f60085f9054906101000a900473ffffffffffffffffffffffffffffffffffffffff1673ffffffffffffffffffffffffffffffffffffffff1663d15e0053836003015f9054906101000a900473ffffffffffffffffffffffffffffffffffffffff166040518263ffffffff1660e01b8152600401613aa4919061456c565b602060405180830381865afa158015613abf573d5f5f3e3d5ffd5b505050506040513d601f19601f82011682018060405250810190613ae391906147de565b90505f6b033b2e3c9fd0803ce8000000828460020154613b039190614a17565b613b0d9190614a85565b90508973ffffffffffffffffffffffffffffffffffffffff16836003015f9054906101000a900473ffffffffffffffffffffffffffffffffffffffff1673ffffffffffffffffffffffffffffffffffffffff1603613bb75788811015613ba8576040517f08c379a0000000000000000000000000000000000000000000000000000000008152600401613b9f90615708565b60405180910390fd5b8881613bb49190614b1d565b90505b8086613bc39190614b50565b955050505b505080806001019150506139af565b5080925050509392505050565b5f5f5f9054906101000a900473ffffffffffffffffffffffffffffffffffffffff169050815f5f6101000a81548173ffffffffffffffffffffffffffffffffffffffff021916908373ffffffffffffffffffffffffffffffffffffffff1602179055508173ffffffffffffffffffffffffffffffffffffffff168173ffffffffffffffffffffffffffffffffffffffff167f8be0079c531659141344cd1fd0a4f28419497f9722a3daafe3b4186f6b6457e060405160405180910390a35050565b5f5f60045f8473ffffffffffffffffffffffffffffffffffffffff1673ffffffffffffffffffffffffffffffffffffffff1681526020019081526020015f20805480602002602001604051908101604052809291908181526020018280548015613d2c57602002820191905f5260205f20905b815481526020019060010190808311613d18575b505050505090505f5f90505f5f90505b8251811015613e5e575f838281518110613d5957613d58615038565b5b602002602001015190505f60025f8381526020019081526020015f20905060026005811115613d8b57613d8a6140ae565b5b816006015f9054906101000a900460ff166005811115613dae57613dad6140ae565b5b03613e4f575f6b033b2e3c9fd0803ce800000060065f846004015481526020019081526020015f20600901548360020154613de99190614a17565b613df39190614a85565b90505f826005015482613e069190614b1d565b90505f613e3b846004015483866003015f9054906101000a900473ffffffffffffffffffffffffffffffffffffffff16610657565b90508087613e499190614b50565b96505050505b50508080600101915050613d3c565b508092505050919050565b5f5f613e7485613ca5565b90505f8103613e87576001915050613ec9565b5f613e93868686613918565b90505f82670de0b6b3a764000083613eab9190614a17565b613eb59190614a85565b90506714d1120d7b16000081101593505050505b9392505050565b613ee781613edf613ef1613f10565b63ffffffff16565b50565b5f33905090565b5f6a636f6e736f6c652e6c6f6790505f5f835160208501845afa505050565b613f1b819050919050565b613f23615726565b565b5f5ffd5b5f5ffd5b5f819050919050565b613f3f81613f2d565b8114613f49575f5ffd5b50565b5f81359050613f5a81613f36565b92915050565b5f819050919050565b613f7281613f60565b8114613f7c575f5ffd5b50565b5f81359050613f8d81613f69565b92915050565b5f73ffffffffffffffffffffffffffffffffffffffff82169050919050565b5f613fbc82613f93565b9050919050565b613fcc81613fb2565b8114613fd6575f5ffd5b50565b5f81359050613fe781613fc3565b92915050565b5f5f5f6060848603121561400457614003613f25565b5b5f61401186828701613f4c565b935050602061402286828701613f7f565b925050604061403386828701613fd9565b9150509250925092565b61404681613f60565b82525050565b5f60208201905061405f5f83018461403d565b92915050565b5f6020828403121561407a57614079613f25565b5b5f61408784828501613f7f565b91505092915050565b61409981613fb2565b82525050565b6140a881613f2d565b82525050565b7f4e487b71000000000000000000000000000000000000000000000000000000005f52602160045260245ffd5b600681106140ec576140eb6140ae565b5b50565b5f8190506140fc826140db565b919050565b5f61410b826140ef565b9050919050565b61411b81614101565b82525050565b5f60e0820190506141345f83018a61403d565b6141416020830189614090565b61414e604083018861403d565b61415b6060830187614090565b614168608083018661409f565b61417560a083018561403d565b61418260c0830184614112565b98975050505050505050565b6002811061419f5761419e6140ae565b5b50565b5f8190506141af8261418e565b919050565b5f6141be826141a2565b9050919050565b6141ce816141b4565b82525050565b5f60a0820190506141e75f83018861403d565b6141f46020830187614090565b614201604083018661403d565b61420e6060830185614090565b61421b60808301846141c5565b9695505050505050565b5f6020828403121561423a57614239613f25565b5b5f61424784828501613fd9565b91505092915050565b5f5f6040838503121561426657614265613f25565b5b5f61427385828601613f4c565b925050602061428485828601613fd9565b9150509250929050565b5f602082840312156142a3576142a2613f25565b5b5f6142b084828501613f4c565b91505092915050565b5f60ff82169050919050565b6142ce816142b9565b82525050565b5f610160820190506142e85f83018e61409f565b6142f5602083018d6142c5565b614302604083018c61403d565b61430f606083018b61403d565b61431c608083018a614090565b61432960a083018961403d565b61433660c083018861403d565b61434360e083018761403d565b61435161010083018661403d565b61435f61012083018561403d565b61436d61014083018461403d565b9c9b505050505050505050505050565b614386816142b9565b8114614390575f5ffd5b50565b5f813590506143a18161437d565b92915050565b5f5f5f5f5f5f5f5f5f6101208a8c0312156143c5576143c4613f25565b5b5f6143d28c828d01613f4c565b99505060206143e38c828d01614393565b98505060406143f48c828d01613fd9565b97505060606144058c828d01613f7f565b96505060806144168c828d01613f7f565b95505060a06144278c828d01613f7f565b94505060c06144388c828d01613f7f565b93505060e06144498c828d01613f7f565b92505061010061445b8c828d01613f7f565b9150509295985092959850929598565b5f5f6040838503121561448157614480613f25565b5b5f61448e85828601613fd9565b925050602061449f85828601613f7f565b9150509250929050565b5f8115159050919050565b6144bd816144a9565b81146144c7575f5ffd5b50565b5f813590506144d8816144b4565b92915050565b5f5f5f606084860312156144f5576144f4613f25565b5b5f61450286828701613fd9565b935050602061451386828701614393565b9250506040614524868287016144ca565b9150509250925092565b5f5f6040838503121561454457614543613f25565b5b5f61455185828601613f7f565b925050602061456285828601613f7f565b9150509250929050565b5f60208201905061457f5f830184614090565b92915050565b5f5ffd5b5f5ffd5b5f5ffd5b5f5f83601f8401126145a6576145a5614585565b5b8235905067ffffffffffffffff8111156145c3576145c2614589565b5b6020830191508360208202830111156145df576145de61458d565b5b9250929050565b5f5f602083850312156145fc576145fb613f25565b5b5f83013567ffffffffffffffff81111561461957614618613f29565b5b61462585828601614591565b92509250509250929050565b5f819050919050565b5f61465461464f61464a84613f93565b614631565b613f93565b9050919050565b5f6146658261463a565b9050919050565b5f6146768261465b565b9050919050565b6146868161466c565b82525050565b5f60208201905061469f5f83018461467d565b92915050565b5f5f5f606084860312156146bc576146bb613f25565b5b5f6146c986828701613fd9565b93505060206146da86828701613f7f565b92505060406146eb86828701613f4c565b9150509250925092565b6146fe816144a9565b82525050565b5f6060820190506147175f830186614090565b61472460208301856142c5565b61473160408301846146f5565b949350505050565b5f82825260208201905092915050565b7f43757272656e6379206e6f7420737570706f72746564000000000000000000005f82015250565b5f61477d601683614739565b915061478882614749565b602082019050919050565b5f6020820190508181035f8301526147aa81614771565b9050919050565b5f6020820190506147c45f83018461409f565b92915050565b5f815190506147d881613f69565b92915050565b5f602082840312156147f3576147f2613f25565b5b5f614800848285016147ca565b91505092915050565b7f50726963652063616e6e6f74206265207a65726f0000000000000000000000005f82015250565b5f61483d601483614739565b915061484882614809565b602082019050919050565b5f6020820190508181035f83015261486a81614831565b9050919050565b7f4e487b71000000000000000000000000000000000000000000000000000000005f52601160045260245ffd5b5f8160011c9050919050565b5f5f8291508390505b60018511156148f3578086048111156148cf576148ce614871565b5b60018516156148de5780820291505b80810290506148ec8561489e565b94506148b3565b94509492505050565b5f8261490b57600190506149c6565b81614918575f90506149c6565b816001811461492e576002811461493857614967565b60019150506149c6565b60ff84111561494a57614949614871565b5b8360020a91508482111561496157614960614871565b5b506149c6565b5060208310610133831016604e8410600b841016171561499c5782820a90508381111561499757614996614871565b5b6149c6565b6149a984848460016148aa565b925090508184048111156149c0576149bf614871565b5b81810290505b9392505050565b5f6149d782613f60565b91506149e2836142b9565b9250614a0f7fffffffffffffffffffffffffffffffffffffffffffffffffffffffffffffffff84846148fc565b905092915050565b5f614a2182613f60565b9150614a2c83613f60565b9250828202614a3a81613f60565b91508282048414831517614a5157614a50614871565b5b5092915050565b7f4e487b71000000000000000000000000000000000000000000000000000000005f52601260045260245ffd5b5f614a8f82613f60565b9150614a9a83613f60565b925082614aaa57614aa9614a58565b5b828204905092915050565b7f6e6f7420726571756573746564000000000000000000000000000000000000005f82015250565b5f614ae9600d83614739565b9150614af482614ab5565b602082019050919050565b5f6020820190508181035f830152614b1681614add565b9050919050565b5f614b2782613f60565b9150614b3283613f60565b9250828203905081811115614b4a57614b49614871565b5b92915050565b5f614b5a82613f60565b9150614b6583613f60565b9250828201905080821115614b7d57614b7c614871565b5b92915050565b7f6e6f742070726f636573736564000000000000000000000000000000000000005f82015250565b5f614bb7600d83614739565b9150614bc282614b83565b602082019050919050565b5f6020820190508181035f830152614be481614bab565b9050919050565b5f8160601b9050919050565b5f614c0182614beb565b9050919050565b5f614c1282614bf7565b9050919050565b614c2a614c2582613fb2565b614c08565b82525050565b5f614c3b8285614c19565b601482019150614c4b8284614c19565b6014820191508190509392505050565b7f6e6f74206c6971756964617461626c65000000000000000000000000000000005f82015250565b5f614c8f601083614739565b9150614c9a82614c5b565b602082019050919050565b5f6020820190508181035f830152614cbc81614c83565b9050919050565b7f636f6c6c6174203e3d20313030250000000000000000000000000000000000005f82015250565b5f614cf7600e83614739565b9150614d0282614cc3565b602082019050919050565b5f6020820190508181035f830152614d2481614ceb565b9050919050565b7f6c6971203e3d20313030250000000000000000000000000000000000000000005f82015250565b5f614d5f600b83614739565b9150614d6a82614d2b565b602082019050919050565b5f6020820190508181035f830152614d8c81614d53565b9050919050565b7f6c6971203c3d20636f6c6c6174000000000000000000000000000000000000005f82015250565b5f614dc7600d83614739565b9150614dd282614d93565b602082019050919050565b5f6020820190508181035f830152614df481614dbb565b9050919050565b7f646563696d616c73203c3d2031380000000000000000000000000000000000005f82015250565b5f614e2f600e83614739565b9150614e3a82614dfb565b602082019050919050565b5f6020820190508181035f830152614e5c81614e23565b9050919050565b7f6e6f7420796f757220626f72726f7700000000000000000000000000000000005f82015250565b5f614e97600f83614739565b9150614ea282614e63565b602082019050919050565b5f6020820190508181035f830152614ec481614e8b565b9050919050565b7f65786365656473206f77656400000000000000000000000000000000000000005f82015250565b5f614eff600c83614739565b9150614f0a82614ecb565b602082019050919050565b5f6020820190508181035f830152614f2c81614ef3565b9050919050565b5f606082019050614f465f83018661409f565b614f53602083018561403d565b614f60604083018461403d565b949350505050565b7f456d7074792061727261790000000000000000000000000000000000000000005f82015250565b5f614f9c600b83614739565b9150614fa782614f68565b602082019050919050565b5f6020820190508181035f830152614fc981614f90565b9050919050565b7f546f6f206d616e792072657175657374730000000000000000000000000000005f82015250565b5f615004601183614739565b915061500f82614fd0565b602082019050919050565b5f6020820190508181035f83015261503181614ff8565b9050919050565b7f4e487b71000000000000000000000000000000000000000000000000000000005f52603260045260245ffd5b7f426f72726f77206e6f7420666f756e64000000000000000000000000000000005f82015250565b5f615099601083614739565b91506150a482615065565b602082019050919050565b5f6020820190508181035f8301526150c68161508d565b9050919050565b7f426f72726f77206e6f74207265717565737465640000000000000000000000005f82015250565b5f615101601483614739565b915061510c826150cd565b602082019050919050565b5f6020820190508181035f83015261512e816150f5565b9050919050565b7f4173736574206e6f7420737570706f72746564000000000000000000000000005f82015250565b5f615169601383614739565b915061517482615135565b602082019050919050565b5f6020820190508181035f8301526151968161515d565b9050919050565b7f6e6f20737570706c7900000000000000000000000000000000000000000000005f82015250565b5f6151d1600983614739565b91506151dc8261519d565b602082019050919050565b5f6020820190508181035f8301526151fe816151c5565b9050919050565b7f737570706c79206e6f74206163746976650000000000000000000000000000005f82015250565b5f615239601183614739565b915061524482615205565b602082019050919050565b5f6020820190508181035f8301526152668161522d565b9050919050565b7f696e73756666696369656e7420636f6c6c61746572616c0000000000000000005f82015250565b5f6152a1601783614739565b91506152ac8261526d565b602082019050919050565b5f6020820190508181035f8301526152ce81615295565b9050919050565b5f6152df82613f60565b91507fffffffffffffffffffffffffffffffffffffffffffffffffffffffffffffffff820361531157615310614871565b5b600182019050919050565b5f819050919050565b61533661533182613f60565b61531c565b82525050565b5f6153478286614c19565b6014820191506153578285614c19565b6014820191506153678284615325565b602082019150819050949350505050565b5f60408201905061538b5f83018561409f565b615398602083018461403d565b9392505050565b7f6e6f7420796f757220737570706c7900000000000000000000000000000000005f82015250565b5f6153d3600f83614739565b91506153de8261539f565b602082019050919050565b5f6020820190508181035f830152615400816153c7565b9050919050565b7f496e73756666696369656e74206865616c746820666163746f720000000000005f82015250565b5f61543b601a83614739565b915061544682615407565b602082019050919050565b5f6020820190508181035f8301526154688161542f565b9050919050565b5f6040820190506154825f830185614090565b61548f602083018461403d565b9392505050565b5f815190506154a4816144b4565b92915050565b5f602082840312156154bf576154be613f25565b5b5f6154cc84828501615496565b91505092915050565b5f6060820190506154e85f830186614090565b6154f5602083018561403d565b615502604083018461403d565b949350505050565b7f416d6f756e74203e2030000000000000000000000000000000000000000000005f82015250565b5f61553e600a83614739565b91506155498261550a565b602082019050919050565b5f6020820190508181035f83015261556b81615532565b9050919050565b5f6060820190506155855f830186614090565b6155926020830185614090565b61559f604083018461403d565b949350505050565b5f819050919050565b5f61ffff82169050919050565b5f6155d76155d26155cd846155a7565b614631565b6155b0565b9050919050565b6155e7816155bd565b82525050565b5f6080820190506156005f830187614090565b61560d602083018661403d565b61561a6040830185614090565b61562760608301846155de565b95945050505050565b5f81519050919050565b8281835e5f83830152505050565b5f601f19601f8301169050919050565b5f61566282615630565b61566c8185614739565b935061567c81856020860161563a565b61568581615648565b840191505092915050565b5f6040820190508181035f8301526156a88185615658565b90506156b7602083018461403d565b9392505050565b7f496e73756666696369656e7420737570706c792062616c616e636500000000005f82015250565b5f6156f2601b83614739565b91506156fd826156be565b602082019050919050565b5f6020820190508181035f83015261571f816156e6565b9050919050565b7f4e487b71000000000000000000000000000000000000000000000000000000005f52605160045260245ffdfea264697066735822122017b86e5bc32fe727f6a05947d5c91621c41f74886ac1881d3f861206c8f172c964736f6c634300081e0033","linkReferences":{}},"methodIdentifiers":{"aavePool()":"a03e4bc3","addSupportedAsset(address,uint8,bool)":"50f3ea35","addSupportedCurrency(bytes32,uint8,address,uint256,uint256,uint256,uint256,uint256,uint256)":"aa70059f","borrow(address,uint256,bytes32)":"aee582f9","borrows(uint256)":"191e9d7c","cancelBorrowRequest(uint256)":"e9d1f8df","cancelBorrowRequests(uint256[])":"94e98074","convertAssetToCurrency(bytes32,uint256,address)":"65affb9b","convertCurrencyToAsset(bytes32,uint256,address)":"09db647b","dynamicBorrowRate(bytes32,address)":"8c47ade6","getUserHealthFactor(address)":"71cbfc98","getUserTotalCollateralAsset(address)":"2aa21420","getUserTotalDebtAsset(address)":"78de7eee","liquidate(uint256)":"415f1240","owner()":"8da5cb5b","processBorrowRequest(uint256)":"14c307e3","processBorrowRequests(uint256[])":"ca9caa39","renounceOwnership()":"715018a6","repayLoan(uint256,uint256)":"8a700b53","supplies(uint256)":"26f1a1fd","supply(address,uint256)":"f2b9fdb8","supportedAssets(address)":"bd81579e","supportedCurrencies(bytes32)":"3db1763f","transferOwnership(address)":"f2fde38b","updateBorrowIndex(bytes32,address)":"3670172d","updateSupportedAsset(address,uint8,bool)":"a5e87599","updateSupportedCurrency(bytes32,uint8,address,uint256,uint256,uint256,uint256,uint256,uint256)":"4c1cd84a","userBorrows(address,uint256)":"b696bdf9","userNonces(address)":"2f7801f4","userSupplies(address,uint256)":"4ef17a67","withdrawSupply(uint256,uint256)":"ccf93ab1"},"id":40}