{"abi":[{"type":"constructor","inputs":[{"name":"_aavePool","type":"address","internalType":"address"},{"name":"_owner","type":"address","internalType":"address"}],"stateMutability":"nonpayable"},{"type":"function","name":"aavePool","inputs":[],"outputs":[{"name":"","type":"address","internalType":"contract IAavePool"}],"stateMutability":"view"},{"type":"function","name":"addSupportedAsset","inputs":[{"name":"token","type":"address","internalType":"address"},{"name":"decimals","type":"uint8","internalType":"uint8"},{"name":"supported","type":"bool","internalType":"bool"}],"outputs":[],"stateMutability":"nonpayable"},{"type":"function","name":"addSupportedCurrency","inputs":[{"name":"currency","type":"bytes32","internalType":"bytes32"},{"name":"decimals","type":"uint8","internalType":"uint8"},{"name":"oracle","type":"address","internalType":"address"},{"name":"collateralizationRatio","type":"uint256","internalType":"uint256"},{"name":"liquidationThreshold","type":"uint256","internalType":"uint256"},{"name":"baseRate","type":"uint256","internalType":"uint256"},{"name":"minRate","type":"uint256","internalType":"uint256"},{"name":"maxRate","type":"uint256","internalType":"uint256"},{"name":"sensitivity","type":"uint256","internalType":"uint256"}],"outputs":[],"stateMutability":"nonpayable"},{"type":"function","name":"borrow","inputs":[{"name":"collateralToken","type":"address","internalType":"address"},{"name":"borrowAmount","type":"uint256","internalType":"uint256"},{"name":"fiatCurrency","type":"bytes32","internalType":"bytes32"}],"outputs":[],"stateMutability":"nonpayable"},{"type":"function","name":"borrows","inputs":[{"name":"","type":"address","internalType":"address"},{"name":"","type":"bytes32","internalType":"bytes32"}],"outputs":[{"name":"owner","type":"address","internalType":"address"},{"name":"borrowedAmount","type":"uint256","internalType":"uint256"},{"name":"collateralToken","type":"address","internalType":"address"},{"name":"fiatCurrency","type":"bytes32","internalType":"bytes32"},{"name":"totalRepaid","type":"uint256","internalType":"uint256"},{"name":"status","type":"uint8","internalType":"enum Torito.BorrowStatus"}],"stateMutability":"view"},{"type":"function","name":"cancelBorrow","inputs":[{"name":"user","type":"address","internalType":"address"},{"name":"currency","type":"bytes32","internalType":"bytes32"}],"outputs":[],"stateMutability":"nonpayable"},{"type":"function","name":"convertCurrencyToUSD","inputs":[{"name":"currency","type":"bytes32","internalType":"bytes32"},{"name":"amount","type":"uint256","internalType":"uint256"}],"outputs":[{"name":"","type":"uint256","internalType":"uint256"}],"stateMutability":"view"},{"type":"function","name":"convertUSDToCurrency","inputs":[{"name":"currency","type":"bytes32","internalType":"bytes32"},{"name":"usdAmount","type":"uint256","internalType":"uint256"}],"outputs":[{"name":"","type":"uint256","internalType":"uint256"}],"stateMutability":"view"},{"type":"function","name":"dynamicBorrowRate","inputs":[{"name":"currency","type":"bytes32","internalType":"bytes32"}],"outputs":[{"name":"","type":"uint256","internalType":"uint256"}],"stateMutability":"view"},{"type":"function","name":"liquidate","inputs":[{"name":"user","type":"address","internalType":"address"},{"name":"currency","type":"bytes32","internalType":"bytes32"}],"outputs":[],"stateMutability":"nonpayable"},{"type":"function","name":"owner","inputs":[],"outputs":[{"name":"","type":"address","internalType":"address"}],"stateMutability":"view"},{"type":"function","name":"processBorrow","inputs":[{"name":"user","type":"address","internalType":"address"},{"name":"currency","type":"bytes32","internalType":"bytes32"}],"outputs":[],"stateMutability":"nonpayable"},{"type":"function","name":"renounceOwnership","inputs":[],"outputs":[],"stateMutability":"nonpayable"},{"type":"function","name":"repayLoan","inputs":[{"name":"currency","type":"bytes32","internalType":"bytes32"},{"name":"repaymentAmount","type":"uint256","internalType":"uint256"}],"outputs":[],"stateMutability":"nonpayable"},{"type":"function","name":"supplies","inputs":[{"name":"","type":"address","internalType":"address"},{"name":"","type":"address","internalType":"address"}],"outputs":[{"name":"owner","type":"address","internalType":"address"},{"name":"scaledBalance","type":"uint256","internalType":"uint256"},{"name":"token","type":"address","internalType":"address"},{"name":"status","type":"uint8","internalType":"enum Torito.SupplyStatus"}],"stateMutability":"view"},{"type":"function","name":"supply","inputs":[{"name":"token","type":"address","internalType":"address"},{"name":"amount","type":"uint256","internalType":"uint256"}],"outputs":[],"stateMutability":"nonpayable"},{"type":"function","name":"supportedAssets","inputs":[{"name":"","type":"address","internalType":"address"}],"outputs":[{"name":"token","type":"address","internalType":"address"},{"name":"decimals","type":"uint8","internalType":"uint8"},{"name":"isSupported","type":"bool","internalType":"bool"}],"stateMutability":"view"},{"type":"function","name":"supportedCurrencies","inputs":[{"name":"","type":"bytes32","internalType":"bytes32"}],"outputs":[{"name":"currency","type":"bytes32","internalType":"bytes32"},{"name":"decimals","type":"uint8","internalType":"uint8"},{"name":"collateralizationRatio","type":"uint256","internalType":"uint256"},{"name":"liquidationThreshold","type":"uint256","internalType":"uint256"},{"name":"oracle","type":"address","internalType":"address"},{"name":"baseRate","type":"uint256","internalType":"uint256"},{"name":"minRate","type":"uint256","internalType":"uint256"},{"name":"maxRate","type":"uint256","internalType":"uint256"},{"name":"sensitivity","type":"uint256","internalType":"uint256"},{"name":"borrowIndex","type":"uint256","internalType":"uint256"},{"name":"lastUpdateBorrowIndex","type":"uint256","internalType":"uint256"}],"stateMutability":"view"},{"type":"function","name":"transferOwnership","inputs":[{"name":"newOwner","type":"address","internalType":"address"}],"outputs":[],"stateMutability":"nonpayable"},{"type":"function","name":"updateBorrowIndex","inputs":[{"name":"currency","type":"bytes32","internalType":"bytes32"}],"outputs":[],"stateMutability":"nonpayable"},{"type":"function","name":"updateSupportedAsset","inputs":[{"name":"token","type":"address","internalType":"address"},{"name":"decimals","type":"uint8","internalType":"uint8"},{"name":"supported","type":"bool","internalType":"bool"}],"outputs":[],"stateMutability":"nonpayable"},{"type":"function","name":"updateSupportedCurrency","inputs":[{"name":"currency","type":"bytes32","internalType":"bytes32"},{"name":"decimals","type":"uint8","internalType":"uint8"},{"name":"oracle","type":"address","internalType":"address"},{"name":"collateralizationRatio","type":"uint256","internalType":"uint256"},{"name":"liquidationThreshold","type":"uint256","internalType":"uint256"},{"name":"baseRate","type":"uint256","internalType":"uint256"},{"name":"minRate","type":"uint256","internalType":"uint256"},{"name":"maxRate","type":"uint256","internalType":"uint256"},{"name":"sensitivity","type":"uint256","internalType":"uint256"}],"outputs":[],"stateMutability":"nonpayable"},{"type":"event","name":"BorrowCanceled","inputs":[{"name":"user","type":"address","indexed":true,"internalType":"address"},{"name":"currency","type":"bytes32","indexed":false,"internalType":"bytes32"}],"anonymous":false},{"type":"event","name":"BorrowProcessed","inputs":[{"name":"user","type":"address","indexed":true,"internalType":"address"},{"name":"currency","type":"bytes32","indexed":false,"internalType":"bytes32"}],"anonymous":false},{"type":"event","name":"BorrowUpdated","inputs":[{"name":"user","type":"address","indexed":true,"internalType":"address"},{"name":"currency","type":"bytes32","indexed":false,"internalType":"bytes32"},{"name":"amount","type":"uint256","indexed":false,"internalType":"uint256"},{"name":"totalAmount","type":"uint256","indexed":false,"internalType":"uint256"}],"anonymous":false},{"type":"event","name":"CollateralLiquidated","inputs":[{"name":"user","type":"address","indexed":true,"internalType":"address"},{"name":"collateralAmount","type":"uint256","indexed":false,"internalType":"uint256"}],"anonymous":false},{"type":"event","name":"LoanRepaid","inputs":[{"name":"user","type":"address","indexed":true,"internalType":"address"},{"name":"currency","type":"bytes32","indexed":false,"internalType":"bytes32"},{"name":"amount","type":"uint256","indexed":false,"internalType":"uint256"},{"name":"remainingAmount","type":"uint256","indexed":false,"internalType":"uint256"}],"anonymous":false},{"type":"event","name":"OwnershipTransferred","inputs":[{"name":"previousOwner","type":"address","indexed":true,"internalType":"address"},{"name":"newOwner","type":"address","indexed":true,"internalType":"address"}],"anonymous":false},{"type":"event","name":"SupplyUpdated","inputs":[{"name":"user","type":"address","indexed":true,"internalType":"address"},{"name":"token","type":"address","indexed":false,"internalType":"address"},{"name":"amount","type":"uint256","indexed":false,"internalType":"uint256"},{"name":"totalAmount","type":"uint256","indexed":false,"internalType":"uint256"}],"anonymous":false},{"type":"error","name":"OwnableInvalidOwner","inputs":[{"name":"owner","type":"address","internalType":"address"}]},{"type":"error","name":"OwnableUnauthorizedAccount","inputs":[{"name":"account","type":"address","internalType":"address"}]}],"bytecode":{"object":"0x608060405234801561000f575f5ffd5b50604051613ee6380380613ee683398181016040528101906100319190610218565b805f73ffffffffffffffffffffffffffffffffffffffff168173ffffffffffffffffffffffffffffffffffffffff16036100a2575f6040517f1e4fbdf70000000000000000000000000000000000000000000000000000000081526004016100999190610265565b60405180910390fd5b6100b1816100f960201b60201c565b508160055f6101000a81548173ffffffffffffffffffffffffffffffffffffffff021916908373ffffffffffffffffffffffffffffffffffffffff160217905550505061027e565b5f5f5f9054906101000a900473ffffffffffffffffffffffffffffffffffffffff169050815f5f6101000a81548173ffffffffffffffffffffffffffffffffffffffff021916908373ffffffffffffffffffffffffffffffffffffffff1602179055508173ffffffffffffffffffffffffffffffffffffffff168173ffffffffffffffffffffffffffffffffffffffff167f8be0079c531659141344cd1fd0a4f28419497f9722a3daafe3b4186f6b6457e060405160405180910390a35050565b5f5ffd5b5f73ffffffffffffffffffffffffffffffffffffffff82169050919050565b5f6101e7826101be565b9050919050565b6101f7816101dd565b8114610201575f5ffd5b50565b5f81519050610212816101ee565b92915050565b5f5f6040838503121561022e5761022d6101ba565b5b5f61023b85828601610204565b925050602061024c85828601610204565b9150509250929050565b61025f816101dd565b82525050565b5f6020820190506102785f830184610256565b92915050565b613c5b8061028b5f395ff3fe608060405234801561000f575f5ffd5b5060043610610140575f3560e01c80639fe9f4a0116100b6578063bd81579e1161007a578063bd81579e14610350578063c24f853014610382578063e399d95a146103b5578063f2b9fdb8146103d1578063f2fde38b146103ed578063f59d40591461040957610140565b80639fe9f4a0146102ae578063a03e4bc3146102de578063a5e87599146102fc578063aa70059f14610318578063aee582f91461033457610140565b80633db1763f116101085780633db1763f146101e45780634c1cd84a1461021e57806350f3ea351461023a578063510f065b14610256578063715018a6146102865780638da5cb5b1461029057610140565b8063027315dd14610144578063050bdf06146101605780630ee8fb491461017c57806327c2f17c146101ac5780633af8c7a6146101c8575b5f5ffd5b61015e60048036038101906101599190612aef565b61043e565b005b61017a60048036038101906101759190612b74565b6104ef565b005b61019660048036038101906101919190612aef565b6105bf565b6040516101a39190612bca565b60405180910390f35b6101c660048036038101906101c19190612c0d565b61075b565b005b6101e260048036038101906101dd9190612b74565b610b19565b005b6101fe60048036038101906101f99190612aef565b610e78565b6040516102159b9a99989796959493929190612c84565b60405180910390f35b61023860048036038101906102339190612d57565b610ef9565b005b610254600480360381019061024f9190612e50565b611197565b005b610270600480360381019061026b9190612c0d565b61129d565b60405161027d9190612bca565b60405180910390f35b61028e6113fd565b005b610298611410565b6040516102a59190612ea0565b60405180910390f35b6102c860048036038101906102c39190612c0d565b611437565b6040516102d59190612bca565b60405180910390f35b6102e66115ac565b6040516102f39190612f14565b60405180910390f35b61031660048036038101906103119190612e50565b6115d1565b005b610332600480360381019061032d9190612d57565b611759565b005b61034e60048036038101906103499190612f2d565b6119d2565b005b61036a60048036038101906103659190612f7d565b612053565b60405161037993929190612fb7565b60405180910390f35b61039c60048036038101906103979190612fec565b6120b0565b6040516103ac949392919061309d565b60405180910390f35b6103cf60048036038101906103ca9190612b74565b612132565b005b6103eb60048036038101906103e691906130e0565b612203565b005b61040760048036038101906104029190612f7d565b61276e565b005b610423600480360381019061041e9190612b74565b6127f2565b60405161043596959493929190613164565b60405180910390f35b5f60045f8381526020019081526020015f2090505f81600a01544261046391906131f0565b90505f81036104735750506104ec565b5f61047d846105bf565b90506b033b2e3c9fd0803ce80000006301e13380838361049d9190613223565b6104a79190613291565b6b033b2e3c9fd0803ce80000006104be91906132c1565b84600901546104cd9190613223565b6104d79190613291565b83600901819055504283600a01819055505050505b50565b6104f761287f565b6002805f8473ffffffffffffffffffffffffffffffffffffffff1673ffffffffffffffffffffffffffffffffffffffff1681526020019081526020015f205f8381526020019081526020015f206005015f6101000a81548160ff021916908360048111156105685761056761302a565b5b02179055508173ffffffffffffffffffffffffffffffffffffffff167fb591be7bbddb77873e000591178280a6a82cdb3d52013684a48e1c0044e537ae826040516105b391906132f4565b60405180910390a25050565b5f5f60045f8481526020019081526020015f2090505f73ffffffffffffffffffffffffffffffffffffffff16816004015f9054906101000a900473ffffffffffffffffffffffffffffffffffffffff1673ffffffffffffffffffffffffffffffffffffffff1603610637578060050154915050610756565b5f61064d825f0154670de0b6b3a7640000611437565b90505f810361066457816005015492505050610756565b5f670de0b6b3a764000082106106c057670de0b6b3a76400008360080154670de0b6b3a76400008461069691906131f0565b6106a09190613223565b6106aa9190613291565b83600501546106b991906132c1565b9050610723565b5f670de0b6b3a7640000846008015484670de0b6b3a76400006106e391906131f0565b6106ed9190613223565b6106f79190613291565b90508084600501541161070e57836006015461071f565b80846005015461071e91906131f0565b5b9150505b8260070154811161074a578260060154811061073f5780610745565b82600601545b610750565b82600701545b93505050505b919050565b33825f73ffffffffffffffffffffffffffffffffffffffff1660025f8473ffffffffffffffffffffffffffffffffffffffff1673ffffffffffffffffffffffffffffffffffffffff1681526020019081526020015f205f8381526020019081526020015f205f015f9054906101000a900473ffffffffffffffffffffffffffffffffffffffff1673ffffffffffffffffffffffffffffffffffffffff1603610838576040517f08c379a000000000000000000000000000000000000000000000000000000000815260040161082f90613367565b60405180910390fd5b6108418461043e565b5f60025f3373ffffffffffffffffffffffffffffffffffffffff1673ffffffffffffffffffffffffffffffffffffffff1681526020019081526020015f205f8681526020019081526020015f209050600160048111156108a4576108a361302a565b5b816005015f9054906101000a900460ff1660048111156108c7576108c661302a565b5b14610907576040517f08c379a00000000000000000000000000000000000000000000000000000000081526004016108fe906133cf565b60405180910390fd5b5f81600401546b033b2e3c9fd0803ce800000060045f8981526020019081526020015f2060090154846001015461093e9190613223565b6109489190613291565b61095291906131f0565b905080851115610997576040517f08c379a000000000000000000000000000000000000000000000000000000000815260040161098e90613437565b60405180910390fd5b84826004015f8282546109aa91906132c1565b9250508190555080826004015410610aaf576003826005015f6101000a81548160ff021916908360048111156109e3576109e261302a565b5b02179055505f60015f3373ffffffffffffffffffffffffffffffffffffffff1673ffffffffffffffffffffffffffffffffffffffff1681526020019081526020015f205f846002015f9054906101000a900473ffffffffffffffffffffffffffffffffffffffff1673ffffffffffffffffffffffffffffffffffffffff1673ffffffffffffffffffffffffffffffffffffffff1681526020019081526020015f2060020160146101000a81548160ff02191690836001811115610aa957610aa861302a565b5b02179055505b5f8582610abc91906131f0565b90503373ffffffffffffffffffffffffffffffffffffffff167fc31e126641b4d5ee4a0af4185c9714b801b757a5302c2f621867b240341531ac888884604051610b0893929190613455565b60405180910390a250505050505050565b5f60025f8473ffffffffffffffffffffffffffffffffffffffff1673ffffffffffffffffffffffffffffffffffffffff1681526020019081526020015f205f8381526020019081526020015f2090505f73ffffffffffffffffffffffffffffffffffffffff16815f015f9054906101000a900473ffffffffffffffffffffffffffffffffffffffff1673ffffffffffffffffffffffffffffffffffffffff1603610bf8576040517f08c379a0000000000000000000000000000000000000000000000000000000008152600401610bef90613367565b60405180910390fd5b60016004811115610c0c57610c0b61302a565b5b816005015f9054906101000a900460ff166004811115610c2f57610c2e61302a565b5b14610c6f576040517f08c379a0000000000000000000000000000000000000000000000000000000008152600401610c66906133cf565b60405180910390fd5b5f60015f8573ffffffffffffffffffffffffffffffffffffffff1673ffffffffffffffffffffffffffffffffffffffff1681526020019081526020015f205f836002015f9054906101000a900473ffffffffffffffffffffffffffffffffffffffff1673ffffffffffffffffffffffffffffffffffffffff1673ffffffffffffffffffffffffffffffffffffffff1681526020019081526020015f2090505f816001015490505f60045f856003015481526020019081526020015f206003015490505f84600401546b033b2e3c9fd0803ce800000060045f8981526020019081526020015f20600901548760010154610d689190613223565b610d729190613291565b610d7c91906131f0565b90505f610d898783611437565b90505f81670de0b6b3a764000086610da19190613223565b610dab9190613291565b9050838110610def576040517f08c379a0000000000000000000000000000000000000000000000000000000008152600401610de6906134d4565b60405180910390fd5b6004876005015f6101000a81548160ff02191690836004811115610e1657610e1561302a565b5b02179055508873ffffffffffffffffffffffffffffffffffffffff167ffa149b6f966139cc74dfaf2610f7b54d8823dbeed646b7da48d8144f510c3f218760010154604051610e659190612bca565b60405180910390a2505050505050505050565b6004602052805f5260405f205f91509050805f015490806001015f9054906101000a900460ff1690806002015490806003015490806004015f9054906101000a900473ffffffffffffffffffffffffffffffffffffffff169080600501549080600601549080600701549080600801549080600901549080600a015490508b565b610f0161287f565b5f5f1b60045f8b81526020019081526020015f205f015403610f58576040517f08c379a0000000000000000000000000000000000000000000000000000000008152600401610f4f9061353c565b60405180910390fd5b670de0b6b3a7640000861015610fa3576040517f08c379a0000000000000000000000000000000000000000000000000000000008152600401610f9a906135a4565b60405180910390fd5b670de0b6b3a7640000851015610fee576040517f08c379a0000000000000000000000000000000000000000000000000000000008152600401610fe59061360c565b60405180910390fd5b85851115611031576040517f08c379a000000000000000000000000000000000000000000000000000000000815260040161102890613674565b60405180910390fd5b60128860ff161115611078576040517f08c379a000000000000000000000000000000000000000000000000000000000815260040161106f906136dc565b60405180910390fd5b8760045f8b81526020019081526020015f206001015f6101000a81548160ff021916908360ff1602179055508660045f8b81526020019081526020015f206004015f6101000a81548173ffffffffffffffffffffffffffffffffffffffff021916908373ffffffffffffffffffffffffffffffffffffffff1602179055508560045f8b81526020019081526020015f20600201819055508460045f8b81526020019081526020015f20600301819055508360045f8b81526020019081526020015f20600501819055508260045f8b81526020019081526020015f20600601819055508160045f8b81526020019081526020015f20600701819055508060045f8b81526020019081526020015f2060080181905550505050505050505050565b61119f61287f565b60405180606001604052808473ffffffffffffffffffffffffffffffffffffffff1681526020018360ff16815260200182151581525060035f8573ffffffffffffffffffffffffffffffffffffffff1673ffffffffffffffffffffffffffffffffffffffff1681526020019081526020015f205f820151815f015f6101000a81548173ffffffffffffffffffffffffffffffffffffffff021916908373ffffffffffffffffffffffffffffffffffffffff1602179055506020820151815f0160146101000a81548160ff021916908360ff1602179055506040820151815f0160156101000a81548160ff021916908315150217905550905050505050565b5f5f60045f8581526020019081526020015f2090505f5f1b815f0154036112f9576040517f08c379a00000000000000000000000000000000000000000000000000000000081526004016112f09061353c565b60405180910390fd5b5f816004015f9054906101000a900473ffffffffffffffffffffffffffffffffffffffff1673ffffffffffffffffffffffffffffffffffffffff166331d98b3f866040518263ffffffff1660e01b815260040161135691906132f4565b602060405180830381865afa158015611371573d5f5f3e3d5ffd5b505050506040513d601f19601f82011682018060405250810190611395919061370e565b90505f81116113d9576040517f08c379a00000000000000000000000000000000000000000000000000000000081526004016113d090613783565b60405180910390fd5b620f424081856113e99190613223565b6113f39190613291565b9250505092915050565b61140561287f565b61140e5f612906565b565b5f5f5f9054906101000a900473ffffffffffffffffffffffffffffffffffffffff16905090565b5f5f60045f8581526020019081526020015f2090505f5f1b815f015403611493576040517f08c379a000000000000000000000000000000000000000000000000000000000815260040161148a9061353c565b60405180910390fd5b5f816004015f9054906101000a900473ffffffffffffffffffffffffffffffffffffffff1673ffffffffffffffffffffffffffffffffffffffff166331d98b3f866040518263ffffffff1660e01b81526004016114f091906132f4565b602060405180830381865afa15801561150b573d5f5f3e3d5ffd5b505050506040513d601f19601f8201168201806040525081019061152f919061370e565b90505f8111611573576040517f08c379a000000000000000000000000000000000000000000000000000000000815260040161156a90613783565b60405180910390fd5b64e8d4a5100081670de0b6b3a76400008661158e9190613223565b6115989190613291565b6115a29190613291565b9250505092915050565b60055f9054906101000a900473ffffffffffffffffffffffffffffffffffffffff1681565b6115d961287f565b5f73ffffffffffffffffffffffffffffffffffffffff1660035f8573ffffffffffffffffffffffffffffffffffffffff1673ffffffffffffffffffffffffffffffffffffffff1681526020019081526020015f205f015f9054906101000a900473ffffffffffffffffffffffffffffffffffffffff1673ffffffffffffffffffffffffffffffffffffffff16036116a5576040517f08c379a000000000000000000000000000000000000000000000000000000000815260040161169c906137eb565b60405180910390fd5b8160035f8573ffffffffffffffffffffffffffffffffffffffff1673ffffffffffffffffffffffffffffffffffffffff1681526020019081526020015f205f0160146101000a81548160ff021916908360ff1602179055508060035f8573ffffffffffffffffffffffffffffffffffffffff1673ffffffffffffffffffffffffffffffffffffffff1681526020019081526020015f205f0160156101000a81548160ff021916908315150217905550505050565b61176161287f565b670de0b6b3a76400008610156117ac576040517f08c379a00000000000000000000000000000000000000000000000000000000081526004016117a3906135a4565b60405180910390fd5b670de0b6b3a76400008510156117f7576040517f08c379a00000000000000000000000000000000000000000000000000000000081526004016117ee9061360c565b60405180910390fd5b8585111561183a576040517f08c379a000000000000000000000000000000000000000000000000000000000815260040161183190613674565b60405180910390fd5b60128860ff161115611881576040517f08c379a0000000000000000000000000000000000000000000000000000000008152600401611878906136dc565b60405180910390fd5b6040518061016001604052808a81526020018960ff1681526020018781526020018681526020018873ffffffffffffffffffffffffffffffffffffffff1681526020018581526020018481526020018381526020018281526020016b033b2e3c9fd0803ce800000081526020014281525060045f8b81526020019081526020015f205f820151815f01556020820151816001015f6101000a81548160ff021916908360ff16021790555060408201518160020155606082015181600301556080820151816004015f6101000a81548173ffffffffffffffffffffffffffffffffffffffff021916908373ffffffffffffffffffffffffffffffffffffffff16021790555060a0820151816005015560c0820151816006015560e082015181600701556101008201518160080155610120820151816009015561014082015181600a0155905050505050505050505050565b33835f73ffffffffffffffffffffffffffffffffffffffff1660015f8473ffffffffffffffffffffffffffffffffffffffff1673ffffffffffffffffffffffffffffffffffffffff1681526020019081526020015f205f8373ffffffffffffffffffffffffffffffffffffffff1673ffffffffffffffffffffffffffffffffffffffff1681526020019081526020015f205f015f9054906101000a900473ffffffffffffffffffffffffffffffffffffffff1673ffffffffffffffffffffffffffffffffffffffff1603611adb576040517f08c379a0000000000000000000000000000000000000000000000000000000008152600401611ad290613853565b60405180910390fd5b5f5f1b60045f8581526020019081526020015f205f015403611b32576040517f08c379a0000000000000000000000000000000000000000000000000000000008152600401611b299061353c565b60405180910390fd5b611b3b8361043e565b5f60015f3373ffffffffffffffffffffffffffffffffffffffff1673ffffffffffffffffffffffffffffffffffffffff1681526020019081526020015f205f8773ffffffffffffffffffffffffffffffffffffffff1673ffffffffffffffffffffffffffffffffffffffff1681526020019081526020015f2090505f6001811115611bc957611bc861302a565b5b8160020160149054906101000a900460ff166001811115611bed57611bec61302a565b5b14611c2d576040517f08c379a0000000000000000000000000000000000000000000000000000000008152600401611c24906138bb565b60405180910390fd5b5f611c388587611437565b90505f670de0b6b3a764000060045f8881526020019081526020015f206002015483611c649190613223565b611c6e9190613291565b9050611caf6040518060400160405280600e81526020017f626f72726f7756616c7565555344000000000000000000000000000000000000815250836129c7565b611d026040518060400160405280601681526020017f636f6c6c61746572616c697a6174696f6e526174696f0000000000000000000081525060045f8981526020019081526020015f20600201546129c7565b5f83600101549050611d496040518060400160405280601281526020017f636f6c6c61746572616c56616c75655553440000000000000000000000000000815250826129c7565b611d886040518060400160405280601581526020017f7265717569726564436f6c6c61746572616c5553440000000000000000000000815250836129c7565b81811015611dcb576040517f08c379a0000000000000000000000000000000000000000000000000000000008152600401611dc290613923565b60405180910390fd5b5f60025f3373ffffffffffffffffffffffffffffffffffffffff1673ffffffffffffffffffffffffffffffffffffffff1681526020019081526020015f205f8981526020019081526020015f2090505f73ffffffffffffffffffffffffffffffffffffffff16815f015f9054906101000a900473ffffffffffffffffffffffffffffffffffffffff1673ffffffffffffffffffffffffffffffffffffffff1603611f735733815f015f6101000a81548173ffffffffffffffffffffffffffffffffffffffff021916908373ffffffffffffffffffffffffffffffffffffffff16021790555087816003018190555089816002015f6101000a81548173ffffffffffffffffffffffffffffffffffffffff021916908373ffffffffffffffffffffffffffffffffffffffff1602179055505f816005015f6101000a81548160ff02191690836004811115611f2157611f2061302a565b5b021790555060045f8981526020019081526020015f20600901546b033b2e3c9fd0803ce80000008a611f539190613223565b611f5d9190613291565b81600101819055505f8160040181905550611fc4565b60045f8981526020019081526020015f20600901546b033b2e3c9fd0803ce80000008a611fa09190613223565b611faa9190613291565b816001015f828254611fbc91906132c1565b925050819055505b60018560020160146101000a81548160ff02191690836001811115611fec57611feb61302a565b5b02179055503373ffffffffffffffffffffffffffffffffffffffff167ffde2590427a5802b0bad03bd7d0997bd073d01c701c2d9dd5e2691b62b49a20f898b846001015460405161203f93929190613455565b60405180910390a250505050505050505050565b6003602052805f5260405f205f91509050805f015f9054906101000a900473ffffffffffffffffffffffffffffffffffffffff1690805f0160149054906101000a900460ff1690805f0160159054906101000a900460ff16905083565b6001602052815f5260405f20602052805f5260405f205f9150915050805f015f9054906101000a900473ffffffffffffffffffffffffffffffffffffffff1690806001015490806002015f9054906101000a900473ffffffffffffffffffffffffffffffffffffffff16908060020160149054906101000a900460ff16905084565b61213a61287f565b600160025f8473ffffffffffffffffffffffffffffffffffffffff1673ffffffffffffffffffffffffffffffffffffffff1681526020019081526020015f205f8381526020019081526020015f206005015f6101000a81548160ff021916908360048111156121ac576121ab61302a565b5b02179055508173ffffffffffffffffffffffffffffffffffffffff167fa6e3ed5928d608d281c1279db0690807d23467efa7964b47f4a3c69e2126ce36826040516121f791906132f4565b60405180910390a25050565b60035f8373ffffffffffffffffffffffffffffffffffffffff1673ffffffffffffffffffffffffffffffffffffffff1681526020019081526020015f205f0160159054906101000a900460ff1661228f576040517f08c379a00000000000000000000000000000000000000000000000000000000081526004016122869061398b565b60405180910390fd5b5f81116122d1576040517f08c379a00000000000000000000000000000000000000000000000000000000081526004016122c8906139f3565b60405180910390fd5b8173ffffffffffffffffffffffffffffffffffffffff166323b872dd3330846040518463ffffffff1660e01b815260040161230e93929190613a11565b6020604051808303815f875af115801561232a573d5f5f3e3d5ffd5b505050506040513d601f19601f8201168201806040525081019061234e9190613a5a565b505f60055f9054906101000a900473ffffffffffffffffffffffffffffffffffffffff1673ffffffffffffffffffffffffffffffffffffffff1663d15e0053846040518263ffffffff1660e01b81526004016123aa9190612ea0565b602060405180830381865afa1580156123c5573d5f5f3e3d5ffd5b505050506040513d601f19601f820116820180604052508101906123e9919061370e565b90508273ffffffffffffffffffffffffffffffffffffffff1663095ea7b360055f9054906101000a900473ffffffffffffffffffffffffffffffffffffffff16846040518363ffffffff1660e01b8152600401612447929190613a85565b6020604051808303815f875af1158015612463573d5f5f3e3d5ffd5b505050506040513d601f19601f820116820180604052508101906124879190613a5a565b5060055f9054906101000a900473ffffffffffffffffffffffffffffffffffffffff1673ffffffffffffffffffffffffffffffffffffffff1663617ba0378484305f6040518563ffffffff1660e01b81526004016124e89493929190613af2565b5f604051808303815f87803b1580156124ff575f5ffd5b505af1158015612511573d5f5f3e3d5ffd5b505050505f60015f3373ffffffffffffffffffffffffffffffffffffffff1673ffffffffffffffffffffffffffffffffffffffff1681526020019081526020015f205f8573ffffffffffffffffffffffffffffffffffffffff1673ffffffffffffffffffffffffffffffffffffffff1681526020019081526020015f2090505f73ffffffffffffffffffffffffffffffffffffffff16815f015f9054906101000a900473ffffffffffffffffffffffffffffffffffffffff1673ffffffffffffffffffffffffffffffffffffffff16036126d55733815f015f6101000a81548173ffffffffffffffffffffffffffffffffffffffff021916908373ffffffffffffffffffffffffffffffffffffffff16021790555083816002015f6101000a81548173ffffffffffffffffffffffffffffffffffffffff021916908373ffffffffffffffffffffffffffffffffffffffff1602179055505f8160020160146101000a81548160ff0219169083600181111561268f5761268e61302a565b5b0217905550816b033b2e3c9fd0803ce8000000846126ad9190613223565b6126b79190613291565b816001015f8282546126c991906132c1565b92505081905550612712565b816b033b2e3c9fd0803ce8000000846126ee9190613223565b6126f89190613291565b816001015f82825461270a91906132c1565b925050819055505b3373ffffffffffffffffffffffffffffffffffffffff167fb8b0e31fbab9db4bb3b3adc13f94f66efdae109edc04accc80ad600761b3c9d08585846001015460405161276093929190613b35565b60405180910390a250505050565b61277661287f565b5f73ffffffffffffffffffffffffffffffffffffffff168173ffffffffffffffffffffffffffffffffffffffff16036127e6575f6040517f1e4fbdf70000000000000000000000000000000000000000000000000000000081526004016127dd9190612ea0565b60405180910390fd5b6127ef81612906565b50565b6002602052815f5260405f20602052805f5260405f205f9150915050805f015f9054906101000a900473ffffffffffffffffffffffffffffffffffffffff1690806001015490806002015f9054906101000a900473ffffffffffffffffffffffffffffffffffffffff1690806003015490806004015490806005015f9054906101000a900460ff16905086565b612887612a63565b73ffffffffffffffffffffffffffffffffffffffff166128a5611410565b73ffffffffffffffffffffffffffffffffffffffff1614612904576128c8612a63565b6040517f118cdaa70000000000000000000000000000000000000000000000000000000081526004016128fb9190612ea0565b60405180910390fd5b565b5f5f5f9054906101000a900473ffffffffffffffffffffffffffffffffffffffff169050815f5f6101000a81548173ffffffffffffffffffffffffffffffffffffffff021916908373ffffffffffffffffffffffffffffffffffffffff1602179055508173ffffffffffffffffffffffffffffffffffffffff168173ffffffffffffffffffffffffffffffffffffffff167f8be0079c531659141344cd1fd0a4f28419497f9722a3daafe3b4186f6b6457e060405160405180910390a35050565b612a5f82826040516024016129dd929190613bca565b6040516020818303038152906040527fb60e72cc000000000000000000000000000000000000000000000000000000007bffffffffffffffffffffffffffffffffffffffffffffffffffffffff19166020820180517bffffffffffffffffffffffffffffffffffffffffffffffffffffffff8381831617835250505050612a6a565b5050565b5f33905090565b612a8181612a79612a84612aa3565b63ffffffff16565b50565b5f6a636f6e736f6c652e6c6f6790505f5f835160208501845afa505050565b612aae819050919050565b612ab6613bf8565b565b5f5ffd5b5f819050919050565b612ace81612abc565b8114612ad8575f5ffd5b50565b5f81359050612ae981612ac5565b92915050565b5f60208284031215612b0457612b03612ab8565b5b5f612b1184828501612adb565b91505092915050565b5f73ffffffffffffffffffffffffffffffffffffffff82169050919050565b5f612b4382612b1a565b9050919050565b612b5381612b39565b8114612b5d575f5ffd5b50565b5f81359050612b6e81612b4a565b92915050565b5f5f60408385031215612b8a57612b89612ab8565b5b5f612b9785828601612b60565b9250506020612ba885828601612adb565b9150509250929050565b5f819050919050565b612bc481612bb2565b82525050565b5f602082019050612bdd5f830184612bbb565b92915050565b612bec81612bb2565b8114612bf6575f5ffd5b50565b5f81359050612c0781612be3565b92915050565b5f5f60408385031215612c2357612c22612ab8565b5b5f612c3085828601612adb565b9250506020612c4185828601612bf9565b9150509250929050565b612c5481612abc565b82525050565b5f60ff82169050919050565b612c6f81612c5a565b82525050565b612c7e81612b39565b82525050565b5f61016082019050612c985f83018e612c4b565b612ca5602083018d612c66565b612cb2604083018c612bbb565b612cbf606083018b612bbb565b612ccc608083018a612c75565b612cd960a0830189612bbb565b612ce660c0830188612bbb565b612cf360e0830187612bbb565b612d01610100830186612bbb565b612d0f610120830185612bbb565b612d1d610140830184612bbb565b9c9b505050505050505050505050565b612d3681612c5a565b8114612d40575f5ffd5b50565b5f81359050612d5181612d2d565b92915050565b5f5f5f5f5f5f5f5f5f6101208a8c031215612d7557612d74612ab8565b5b5f612d828c828d01612adb565b9950506020612d938c828d01612d43565b9850506040612da48c828d01612b60565b9750506060612db58c828d01612bf9565b9650506080612dc68c828d01612bf9565b95505060a0612dd78c828d01612bf9565b94505060c0612de88c828d01612bf9565b93505060e0612df98c828d01612bf9565b925050610100612e0b8c828d01612bf9565b9150509295985092959850929598565b5f8115159050919050565b612e2f81612e1b565b8114612e39575f5ffd5b50565b5f81359050612e4a81612e26565b92915050565b5f5f5f60608486031215612e6757612e66612ab8565b5b5f612e7486828701612b60565b9350506020612e8586828701612d43565b9250506040612e9686828701612e3c565b9150509250925092565b5f602082019050612eb35f830184612c75565b92915050565b5f819050919050565b5f612edc612ed7612ed284612b1a565b612eb9565b612b1a565b9050919050565b5f612eed82612ec2565b9050919050565b5f612efe82612ee3565b9050919050565b612f0e81612ef4565b82525050565b5f602082019050612f275f830184612f05565b92915050565b5f5f5f60608486031215612f4457612f43612ab8565b5b5f612f5186828701612b60565b9350506020612f6286828701612bf9565b9250506040612f7386828701612adb565b9150509250925092565b5f60208284031215612f9257612f91612ab8565b5b5f612f9f84828501612b60565b91505092915050565b612fb181612e1b565b82525050565b5f606082019050612fca5f830186612c75565b612fd76020830185612c66565b612fe46040830184612fa8565b949350505050565b5f5f6040838503121561300257613001612ab8565b5b5f61300f85828601612b60565b925050602061302085828601612b60565b9150509250929050565b7f4e487b71000000000000000000000000000000000000000000000000000000005f52602160045260245ffd5b600281106130685761306761302a565b5b50565b5f81905061307882613057565b919050565b5f6130878261306b565b9050919050565b6130978161307d565b82525050565b5f6080820190506130b05f830187612c75565b6130bd6020830186612bbb565b6130ca6040830185612c75565b6130d7606083018461308e565b95945050505050565b5f5f604083850312156130f6576130f5612ab8565b5b5f61310385828601612b60565b925050602061311485828601612bf9565b9150509250929050565b6005811061312f5761312e61302a565b5b50565b5f81905061313f8261311e565b919050565b5f61314e82613132565b9050919050565b61315e81613144565b82525050565b5f60c0820190506131775f830189612c75565b6131846020830188612bbb565b6131916040830187612c75565b61319e6060830186612c4b565b6131ab6080830185612bbb565b6131b860a0830184613155565b979650505050505050565b7f4e487b71000000000000000000000000000000000000000000000000000000005f52601160045260245ffd5b5f6131fa82612bb2565b915061320583612bb2565b925082820390508181111561321d5761321c6131c3565b5b92915050565b5f61322d82612bb2565b915061323883612bb2565b925082820261324681612bb2565b9150828204841483151761325d5761325c6131c3565b5b5092915050565b7f4e487b71000000000000000000000000000000000000000000000000000000005f52601260045260245ffd5b5f61329b82612bb2565b91506132a683612bb2565b9250826132b6576132b5613264565b5b828204905092915050565b5f6132cb82612bb2565b91506132d683612bb2565b92508282019050808211156132ee576132ed6131c3565b5b92915050565b5f6020820190506133075f830184612c4b565b92915050565b5f82825260208201905092915050565b7f6e6f20626f72726f7700000000000000000000000000000000000000000000005f82015250565b5f61335160098361330d565b915061335c8261331d565b602082019050919050565b5f6020820190508181035f83015261337e81613345565b9050919050565b7f6e6f742070726f636573736564000000000000000000000000000000000000005f82015250565b5f6133b9600d8361330d565b91506133c482613385565b602082019050919050565b5f6020820190508181035f8301526133e6816133ad565b9050919050565b7f65786365656473206f77656400000000000000000000000000000000000000005f82015250565b5f613421600c8361330d565b915061342c826133ed565b602082019050919050565b5f6020820190508181035f83015261344e81613415565b9050919050565b5f6060820190506134685f830186612c4b565b6134756020830185612bbb565b6134826040830184612bbb565b949350505050565b7f6e6f74206c6971756964617461626c65000000000000000000000000000000005f82015250565b5f6134be60108361330d565b91506134c98261348a565b602082019050919050565b5f6020820190508181035f8301526134eb816134b2565b9050919050565b7f43757272656e6379206e6f7420737570706f72746564000000000000000000005f82015250565b5f61352660168361330d565b9150613531826134f2565b602082019050919050565b5f6020820190508181035f8301526135538161351a565b9050919050565b7f636f6c6c6174203e3d20313030250000000000000000000000000000000000005f82015250565b5f61358e600e8361330d565b91506135998261355a565b602082019050919050565b5f6020820190508181035f8301526135bb81613582565b9050919050565b7f6c6971203e3d20313030250000000000000000000000000000000000000000005f82015250565b5f6135f6600b8361330d565b9150613601826135c2565b602082019050919050565b5f6020820190508181035f830152613623816135ea565b9050919050565b7f6c6971203c3d20636f6c6c6174000000000000000000000000000000000000005f82015250565b5f61365e600d8361330d565b91506136698261362a565b602082019050919050565b5f6020820190508181035f83015261368b81613652565b9050919050565b7f646563696d616c73203c3d2031380000000000000000000000000000000000005f82015250565b5f6136c6600e8361330d565b91506136d182613692565b602082019050919050565b5f6020820190508181035f8301526136f3816136ba565b9050919050565b5f8151905061370881612be3565b92915050565b5f6020828403121561372357613722612ab8565b5b5f613730848285016136fa565b91505092915050565b7f50726963652063616e6e6f74206265207a65726f0000000000000000000000005f82015250565b5f61376d60148361330d565b915061377882613739565b602082019050919050565b5f6020820190508181035f83015261379a81613761565b9050919050565b7f4173736574206e6f7420737570706f72746564000000000000000000000000005f82015250565b5f6137d560138361330d565b91506137e0826137a1565b602082019050919050565b5f6020820190508181035f830152613802816137c9565b9050919050565b7f6e6f20737570706c7900000000000000000000000000000000000000000000005f82015250565b5f61383d60098361330d565b915061384882613809565b602082019050919050565b5f6020820190508181035f83015261386a81613831565b9050919050565b7f737570706c79206e6f74206163746976650000000000000000000000000000005f82015250565b5f6138a560118361330d565b91506138b082613871565b602082019050919050565b5f6020820190508181035f8301526138d281613899565b9050919050565b7f696e73756666696369656e7420636f6c6c61746572616c0000000000000000005f82015250565b5f61390d60178361330d565b9150613918826138d9565b602082019050919050565b5f6020820190508181035f83015261393a81613901565b9050919050565b7f546f6b656e206e6f7420737570706f72746564000000000000000000000000005f82015250565b5f61397560138361330d565b915061398082613941565b602082019050919050565b5f6020820190508181035f8301526139a281613969565b9050919050565b7f416d6f756e74203e2030000000000000000000000000000000000000000000005f82015250565b5f6139dd600a8361330d565b91506139e8826139a9565b602082019050919050565b5f6020820190508181035f830152613a0a816139d1565b9050919050565b5f606082019050613a245f830186612c75565b613a316020830185612c75565b613a3e6040830184612bbb565b949350505050565b5f81519050613a5481612e26565b92915050565b5f60208284031215613a6f57613a6e612ab8565b5b5f613a7c84828501613a46565b91505092915050565b5f604082019050613a985f830185612c75565b613aa56020830184612bbb565b9392505050565b5f819050919050565b5f61ffff82169050919050565b5f613adc613ad7613ad284613aac565b612eb9565b613ab5565b9050919050565b613aec81613ac2565b82525050565b5f608082019050613b055f830187612c75565b613b126020830186612bbb565b613b1f6040830185612c75565b613b2c6060830184613ae3565b95945050505050565b5f606082019050613b485f830186612c75565b613b556020830185612bbb565b613b626040830184612bbb565b949350505050565b5f81519050919050565b8281835e5f83830152505050565b5f601f19601f8301169050919050565b5f613b9c82613b6a565b613ba6818561330d565b9350613bb6818560208601613b74565b613bbf81613b82565b840191505092915050565b5f6040820190508181035f830152613be28185613b92565b9050613bf16020830184612bbb565b9392505050565b7f4e487b71000000000000000000000000000000000000000000000000000000005f52605160045260245ffdfea264697066735822122071d123a2e40420fecf55a10cf49c61423d093bbc88f751d7796c384b38f6f7d964736f6c634300081e0033","linkReferences":{}},"methodIdentifiers":{"aavePool()":"a03e4bc3","addSupportedAsset(address,uint8,bool)":"50f3ea35","addSupportedCurrency(bytes32,uint8,address,uint256,uint256,uint256,uint256,uint256,uint256)":"aa70059f","borrow(address,uint256,bytes32)":"aee582f9","borrows(address,bytes32)":"f59d4059","cancelBorrow(address,bytes32)":"050bdf06","convertCurrencyToUSD(bytes32,uint256)":"9fe9f4a0","convertUSDToCurrency(bytes32,uint256)":"510f065b","dynamicBorrowRate(bytes32)":"0ee8fb49","liquidate(address,bytes32)":"3af8c7a6","owner()":"8da5cb5b","processBorrow(address,bytes32)":"e399d95a","renounceOwnership()":"715018a6","repayLoan(bytes32,uint256)":"27c2f17c","supplies(address,address)":"c24f8530","supply(address,uint256)":"f2b9fdb8","supportedAssets(address)":"bd81579e","supportedCurrencies(bytes32)":"3db1763f","transferOwnership(address)":"f2fde38b","updateBorrowIndex(bytes32)":"027315dd","updateSupportedAsset(address,uint8,bool)":"a5e87599","updateSupportedCurrency(bytes32,uint8,address,uint256,uint256,uint256,uint256,uint256,uint256)":"4c1cd84a"},"id":40}