{"abi":[{"type":"constructor","inputs":[{"name":"_aavePool","type":"address","internalType":"address"},{"name":"_owner","type":"address","internalType":"address"}],"stateMutability":"nonpayable"},{"type":"function","name":"aavePool","inputs":[],"outputs":[{"name":"","type":"address","internalType":"contract IAavePool"}],"stateMutability":"view"},{"type":"function","name":"addSupportedAsset","inputs":[{"name":"assetAddr","type":"address","internalType":"address"},{"name":"decimals","type":"uint8","internalType":"uint8"},{"name":"supported","type":"bool","internalType":"bool"}],"outputs":[],"stateMutability":"nonpayable"},{"type":"function","name":"addSupportedCurrency","inputs":[{"name":"currency","type":"bytes32","internalType":"bytes32"},{"name":"decimals","type":"uint8","internalType":"uint8"},{"name":"oracle","type":"address","internalType":"address"},{"name":"collateralizationRatio","type":"uint256","internalType":"uint256"},{"name":"liquidationThreshold","type":"uint256","internalType":"uint256"},{"name":"baseRate","type":"uint256","internalType":"uint256"},{"name":"minRate","type":"uint256","internalType":"uint256"},{"name":"maxRate","type":"uint256","internalType":"uint256"},{"name":"sensitivity","type":"uint256","internalType":"uint256"}],"outputs":[],"stateMutability":"nonpayable"},{"type":"function","name":"borrow","inputs":[{"name":"collateralAsset","type":"address","internalType":"address"},{"name":"borrowAmount","type":"uint256","internalType":"uint256"},{"name":"fiatCurrency","type":"bytes32","internalType":"bytes32"}],"outputs":[],"stateMutability":"nonpayable"},{"type":"function","name":"borrowRequests","inputs":[{"name":"","type":"uint256","internalType":"uint256"}],"outputs":[{"name":"requestId","type":"uint256","internalType":"uint256"},{"name":"owner","type":"address","internalType":"address"},{"name":"collateralAsset","type":"address","internalType":"address"},{"name":"fiatCurrency","type":"bytes32","internalType":"bytes32"},{"name":"borrowAmount","type":"uint256","internalType":"uint256"},{"name":"status","type":"uint8","internalType":"enum Torito.RequestStatus"}],"stateMutability":"view"},{"type":"function","name":"borrows","inputs":[{"name":"","type":"uint256","internalType":"uint256"}],"outputs":[{"name":"borrowId","type":"uint256","internalType":"uint256"},{"name":"owner","type":"address","internalType":"address"},{"name":"borrowedAmount","type":"uint256","internalType":"uint256"},{"name":"collateralAsset","type":"address","internalType":"address"},{"name":"fiatCurrency","type":"bytes32","internalType":"bytes32"},{"name":"totalRepaid","type":"uint256","internalType":"uint256"},{"name":"lockedCollateralAsset","type":"uint256","internalType":"uint256"},{"name":"status","type":"uint8","internalType":"enum Torito.BorrowStatus"}],"stateMutability":"view"},{"type":"function","name":"cancelBorrowRequest","inputs":[{"name":"requestId","type":"uint256","internalType":"uint256"}],"outputs":[],"stateMutability":"nonpayable"},{"type":"function","name":"cancelBorrowRequests","inputs":[{"name":"requestIds","type":"uint256[]","internalType":"uint256[]"}],"outputs":[],"stateMutability":"nonpayable"},{"type":"function","name":"convertAssetToCurrency","inputs":[{"name":"currency","type":"bytes32","internalType":"bytes32"},{"name":"assetAmount","type":"uint256","internalType":"uint256"},{"name":"collateralAsset","type":"address","internalType":"address"}],"outputs":[{"name":"","type":"uint256","internalType":"uint256"}],"stateMutability":"view"},{"type":"function","name":"convertCurrencyToAsset","inputs":[{"name":"currency","type":"bytes32","internalType":"bytes32"},{"name":"amount","type":"uint256","internalType":"uint256"},{"name":"collateralAsset","type":"address","internalType":"address"}],"outputs":[{"name":"","type":"uint256","internalType":"uint256"}],"stateMutability":"view"},{"type":"function","name":"dynamicBorrowRate","inputs":[{"name":"currency","type":"bytes32","internalType":"bytes32"},{"name":"collateralAsset","type":"address","internalType":"address"}],"outputs":[{"name":"","type":"uint256","internalType":"uint256"}],"stateMutability":"view"},{"type":"function","name":"liquidate","inputs":[{"name":"borrowId","type":"uint256","internalType":"uint256"}],"outputs":[],"stateMutability":"nonpayable"},{"type":"function","name":"owner","inputs":[],"outputs":[{"name":"","type":"address","internalType":"address"}],"stateMutability":"view"},{"type":"function","name":"processBorrowRequest","inputs":[{"name":"requestId","type":"uint256","internalType":"uint256"}],"outputs":[],"stateMutability":"nonpayable"},{"type":"function","name":"processBorrowRequests","inputs":[{"name":"requestIds","type":"uint256[]","internalType":"uint256[]"}],"outputs":[],"stateMutability":"nonpayable"},{"type":"function","name":"renounceOwnership","inputs":[],"outputs":[],"stateMutability":"nonpayable"},{"type":"function","name":"repayLoan","inputs":[{"name":"borrowId","type":"uint256","internalType":"uint256"},{"name":"repaymentAmount","type":"uint256","internalType":"uint256"}],"outputs":[],"stateMutability":"nonpayable"},{"type":"function","name":"supplies","inputs":[{"name":"","type":"uint256","internalType":"uint256"}],"outputs":[{"name":"supplyId","type":"uint256","internalType":"uint256"},{"name":"owner","type":"address","internalType":"address"},{"name":"scaledBalance","type":"uint256","internalType":"uint256"},{"name":"asset","type":"address","internalType":"address"},{"name":"usedCollateral","type":"uint256","internalType":"uint256"},{"name":"status","type":"uint8","internalType":"enum Torito.SupplyStatus"}],"stateMutability":"view"},{"type":"function","name":"supply","inputs":[{"name":"asset","type":"address","internalType":"address"},{"name":"amount","type":"uint256","internalType":"uint256"}],"outputs":[],"stateMutability":"nonpayable"},{"type":"function","name":"supportedAssets","inputs":[{"name":"","type":"address","internalType":"address"}],"outputs":[{"name":"assetAddress","type":"address","internalType":"address"},{"name":"decimals","type":"uint8","internalType":"uint8"},{"name":"isSupported","type":"bool","internalType":"bool"}],"stateMutability":"view"},{"type":"function","name":"supportedCurrencies","inputs":[{"name":"","type":"bytes32","internalType":"bytes32"}],"outputs":[{"name":"currency","type":"bytes32","internalType":"bytes32"},{"name":"decimals","type":"uint8","internalType":"uint8"},{"name":"collateralizationRatio","type":"uint256","internalType":"uint256"},{"name":"liquidationThreshold","type":"uint256","internalType":"uint256"},{"name":"oracle","type":"address","internalType":"address"},{"name":"baseRate","type":"uint256","internalType":"uint256"},{"name":"minRate","type":"uint256","internalType":"uint256"},{"name":"maxRate","type":"uint256","internalType":"uint256"},{"name":"sensitivity","type":"uint256","internalType":"uint256"},{"name":"borrowIndex","type":"uint256","internalType":"uint256"},{"name":"lastUpdateBorrowIndex","type":"uint256","internalType":"uint256"}],"stateMutability":"view"},{"type":"function","name":"transferOwnership","inputs":[{"name":"newOwner","type":"address","internalType":"address"}],"outputs":[],"stateMutability":"nonpayable"},{"type":"function","name":"updateBorrowIndex","inputs":[{"name":"currency","type":"bytes32","internalType":"bytes32"},{"name":"collateralAsset","type":"address","internalType":"address"}],"outputs":[],"stateMutability":"nonpayable"},{"type":"function","name":"updateSupportedAsset","inputs":[{"name":"assetAddr","type":"address","internalType":"address"},{"name":"decimals","type":"uint8","internalType":"uint8"},{"name":"supported","type":"bool","internalType":"bool"}],"outputs":[],"stateMutability":"nonpayable"},{"type":"function","name":"updateSupportedCurrency","inputs":[{"name":"currency","type":"bytes32","internalType":"bytes32"},{"name":"decimals","type":"uint8","internalType":"uint8"},{"name":"oracle","type":"address","internalType":"address"},{"name":"collateralizationRatio","type":"uint256","internalType":"uint256"},{"name":"liquidationThreshold","type":"uint256","internalType":"uint256"},{"name":"baseRate","type":"uint256","internalType":"uint256"},{"name":"minRate","type":"uint256","internalType":"uint256"},{"name":"maxRate","type":"uint256","internalType":"uint256"},{"name":"sensitivity","type":"uint256","internalType":"uint256"}],"outputs":[],"stateMutability":"nonpayable"},{"type":"function","name":"userNonces","inputs":[{"name":"","type":"address","internalType":"address"}],"outputs":[{"name":"","type":"uint256","internalType":"uint256"}],"stateMutability":"view"},{"type":"function","name":"withdrawSupply","inputs":[{"name":"supplyId","type":"uint256","internalType":"uint256"},{"name":"withdrawAmount","type":"uint256","internalType":"uint256"}],"outputs":[],"stateMutability":"nonpayable"},{"type":"event","name":"BorrowRequestCanceled","inputs":[{"name":"requestId","type":"uint256","indexed":true,"internalType":"uint256"},{"name":"user","type":"address","indexed":true,"internalType":"address"},{"name":"currency","type":"bytes32","indexed":false,"internalType":"bytes32"}],"anonymous":false},{"type":"event","name":"BorrowRequestCreated","inputs":[{"name":"requestId","type":"uint256","indexed":true,"internalType":"uint256"},{"name":"user","type":"address","indexed":true,"internalType":"address"},{"name":"collateralAsset","type":"address","indexed":false,"internalType":"address"},{"name":"currency","type":"bytes32","indexed":false,"internalType":"bytes32"},{"name":"amount","type":"uint256","indexed":false,"internalType":"uint256"}],"anonymous":false},{"type":"event","name":"BorrowRequestProcessed","inputs":[{"name":"requestId","type":"uint256","indexed":true,"internalType":"uint256"},{"name":"borrowId","type":"uint256","indexed":true,"internalType":"uint256"},{"name":"user","type":"address","indexed":true,"internalType":"address"},{"name":"currency","type":"bytes32","indexed":false,"internalType":"bytes32"},{"name":"amount","type":"uint256","indexed":false,"internalType":"uint256"},{"name":"lockedCollateralAsset","type":"uint256","indexed":false,"internalType":"uint256"}],"anonymous":false},{"type":"event","name":"BorrowUpdated","inputs":[{"name":"borrowId","type":"uint256","indexed":true,"internalType":"uint256"},{"name":"user","type":"address","indexed":true,"internalType":"address"},{"name":"currency","type":"bytes32","indexed":false,"internalType":"bytes32"},{"name":"amount","type":"uint256","indexed":false,"internalType":"uint256"},{"name":"totalAmount","type":"uint256","indexed":false,"internalType":"uint256"}],"anonymous":false},{"type":"event","name":"CollateralLiquidated","inputs":[{"name":"borrowId","type":"uint256","indexed":true,"internalType":"uint256"},{"name":"user","type":"address","indexed":true,"internalType":"address"},{"name":"collateralAmount","type":"uint256","indexed":false,"internalType":"uint256"}],"anonymous":false},{"type":"event","name":"LoanRepaid","inputs":[{"name":"borrowId","type":"uint256","indexed":true,"internalType":"uint256"},{"name":"user","type":"address","indexed":true,"internalType":"address"},{"name":"currency","type":"bytes32","indexed":false,"internalType":"bytes32"},{"name":"amount","type":"uint256","indexed":false,"internalType":"uint256"},{"name":"remainingAmount","type":"uint256","indexed":false,"internalType":"uint256"}],"anonymous":false},{"type":"event","name":"OwnershipTransferred","inputs":[{"name":"previousOwner","type":"address","indexed":true,"internalType":"address"},{"name":"newOwner","type":"address","indexed":true,"internalType":"address"}],"anonymous":false},{"type":"event","name":"SupplyCreated","inputs":[{"name":"supplyId","type":"uint256","indexed":true,"internalType":"uint256"},{"name":"user","type":"address","indexed":true,"internalType":"address"},{"name":"token","type":"address","indexed":false,"internalType":"address"},{"name":"amount","type":"uint256","indexed":false,"internalType":"uint256"}],"anonymous":false},{"type":"event","name":"SupplyDeposited","inputs":[{"name":"supplyId","type":"uint256","indexed":true,"internalType":"uint256"},{"name":"user","type":"address","indexed":true,"internalType":"address"},{"name":"token","type":"address","indexed":false,"internalType":"address"},{"name":"amount","type":"uint256","indexed":false,"internalType":"uint256"},{"name":"totalAmount","type":"uint256","indexed":false,"internalType":"uint256"}],"anonymous":false},{"type":"event","name":"SupplyWithdrawn","inputs":[{"name":"supplyId","type":"uint256","indexed":true,"internalType":"uint256"},{"name":"user","type":"address","indexed":true,"internalType":"address"},{"name":"token","type":"address","indexed":false,"internalType":"address"},{"name":"amount","type":"uint256","indexed":false,"internalType":"uint256"},{"name":"totalAmount","type":"uint256","indexed":false,"internalType":"uint256"}],"anonymous":false},{"type":"error","name":"OwnableInvalidOwner","inputs":[{"name":"owner","type":"address","internalType":"address"}]},{"type":"error","name":"OwnableUnauthorizedAccount","inputs":[{"name":"account","type":"address","internalType":"address"}]}],"bytecode":{"object":"0x608060405234801561000f575f5ffd5b5060405161577d38038061577d83398181016040528101906100319190610218565b805f73ffffffffffffffffffffffffffffffffffffffff168173ffffffffffffffffffffffffffffffffffffffff16036100a2575f6040517f1e4fbdf70000000000000000000000000000000000000000000000000000000081526004016100999190610265565b60405180910390fd5b6100b1816100f960201b60201c565b508160075f6101000a81548173ffffffffffffffffffffffffffffffffffffffff021916908373ffffffffffffffffffffffffffffffffffffffff160217905550505061027e565b5f5f5f9054906101000a900473ffffffffffffffffffffffffffffffffffffffff169050815f5f6101000a81548173ffffffffffffffffffffffffffffffffffffffff021916908373ffffffffffffffffffffffffffffffffffffffff1602179055508173ffffffffffffffffffffffffffffffffffffffff168173ffffffffffffffffffffffffffffffffffffffff167f8be0079c531659141344cd1fd0a4f28419497f9722a3daafe3b4186f6b6457e060405160405180910390a35050565b5f5ffd5b5f73ffffffffffffffffffffffffffffffffffffffff82169050919050565b5f6101e7826101be565b9050919050565b6101f7816101dd565b8114610201575f5ffd5b50565b5f81519050610212816101ee565b92915050565b5f5f6040838503121561022e5761022d6101ba565b5b5f61023b85828601610204565b925050602061024c85828601610204565b9150509250929050565b61025f816101dd565b82525050565b5f6020820190506102785f830184610256565b92915050565b6154f28061028b5f395ff3fe608060405234801561000f575f5ffd5b50600436106101a7575f3560e01c80638a700b53116100f7578063aee582f911610095578063ccf93ab11161006f578063ccf93ab1146104f2578063e9d1f8df1461050e578063f2b9fdb81461052a578063f2fde38b14610546576101a7565b8063aee582f914610488578063bd81579e146104a4578063ca9caa39146104d6576101a7565b806394e98074116100d157806394e9807414610416578063a03e4bc314610432578063a5e8759914610450578063aa70059f1461046c576101a7565b80638a700b53146103ac5780638c47ade6146103c85780638da5cb5b146103f8576101a7565b80633db1763f1161016457806350d282fc1161013e57806350d282fc1461032157806350f3ea351461035657806365affb9b14610372578063715018a6146103a2576101a7565b80633db1763f146102af578063415f1240146102e95780634c1cd84a14610305576101a7565b806309db647b146101ab57806314c307e3146101db578063191e9d7c146101f757806326f1a1fd1461022e5780632f7801f4146102635780633670172d14610293575b5f5ffd5b6101c560048036038101906101c09190613d16565b610562565b6040516101d29190613d75565b60405180910390f35b6101f560048036038101906101f09190613d8e565b610722565b005b610211600480360381019061020c9190613d8e565b6107be565b604051610225989796959493929190613e4a565b60405180910390f35b61024860048036038101906102439190613d8e565b61084c565b60405161025a96959493929190613f0c565b60405180910390f35b61027d60048036038101906102789190613f6b565b6108ce565b60405161028a9190613d75565b60405180910390f35b6102ad60048036038101906102a89190613f96565b6108e3565b005b6102c960048036038101906102c49190613fd4565b610996565b6040516102e09b9a9998979695949392919061401a565b60405180910390f35b61030360048036038101906102fe9190613d8e565b610a17565b005b61031f600480360381019061031a91906140ed565b610e1c565b005b61033b60048036038101906103369190613d8e565b6110ba565b60405161034d969594939291906141f7565b60405180910390f35b610370600480360381019061036b919061428b565b61113c565b005b61038c60048036038101906103879190613d16565b611242565b6040516103999190613d75565b60405180910390f35b6103aa611402565b005b6103c660048036038101906103c191906142db565b611415565b005b6103e260048036038101906103dd9190613f96565b6117d5565b6040516103ef9190613d75565b60405180910390f35b610400611973565b60405161040d9190614319565b60405180910390f35b610430600480360381019061042b9190614393565b61199a565b005b61043a611c4c565b6040516104479190614439565b60405180910390f35b61046a6004803603810190610465919061428b565b611c71565b005b610486600480360381019061048191906140ed565b611df9565b005b6104a2600480360381019061049d9190614452565b612072565b005b6104be60048036038101906104b99190613f6b565b6123d8565b6040516104cd939291906144b1565b60405180910390f35b6104f060048036038101906104eb9190614393565b612435565b005b61050c600480360381019061050791906142db565b612639565b005b61052860048036038101906105239190613d8e565b612acc565b005b610544600480360381019061053f91906144e6565b612c16565b005b610560600480360381019061055b9190613f6b565b6131bb565b005b5f5f60055f8681526020019081526020015f2090505f5f1b815f0154036105be576040517f08c379a00000000000000000000000000000000000000000000000000000000081526004016105b59061457e565b60405180910390fd5b5f816004015f9054906101000a900473ffffffffffffffffffffffffffffffffffffffff1673ffffffffffffffffffffffffffffffffffffffff166331d98b3f876040518263ffffffff1660e01b815260040161061b919061459c565b602060405180830381865afa158015610636573d5f5f3e3d5ffd5b505050506040513d601f19601f8201168201806040525081019061065a91906145c9565b90505f811161069e576040517f08c379a00000000000000000000000000000000000000000000000000000000081526004016106959061463e565b60405180910390fd5b5f60045f8673ffffffffffffffffffffffffffffffffffffffff1673ffffffffffffffffffffffffffffffffffffffff1681526020019081526020015f205f0160149054906101000a900460ff1690505f8282600a6106fd91906147b8565b886107089190614802565b6107129190614870565b9050809450505050509392505050565b61072a61323f565b805f600281111561073e5761073d613dd7565b5b60035f8381526020019081526020015f206005015f9054906101000a900460ff16600281111561077157610770613dd7565b5b146107b1576040517f08c379a00000000000000000000000000000000000000000000000000000000081526004016107a8906148ea565b60405180910390fd5b6107ba826132c6565b5050565b6002602052805f5260405f205f91509050805f015490806001015f9054906101000a900473ffffffffffffffffffffffffffffffffffffffff1690806002015490806003015f9054906101000a900473ffffffffffffffffffffffffffffffffffffffff1690806004015490806005015490806006015490806007015f9054906101000a900460ff16905088565b6001602052805f5260405f205f91509050805f015490806001015f9054906101000a900473ffffffffffffffffffffffffffffffffffffffff1690806002015490806003015f9054906101000a900473ffffffffffffffffffffffffffffffffffffffff1690806004015490806005015f9054906101000a900460ff16905086565b6006602052805f5260405f205f915090505481565b5f60055f8481526020019081526020015f2090505f81600a0154426109089190614908565b90505f8103610918575050610992565b5f61092385856117d5565b90506b033b2e3c9fd0803ce80000006301e1338083836109439190614802565b61094d9190614870565b6b033b2e3c9fd0803ce8000000610964919061493b565b84600901546109739190614802565b61097d9190614870565b83600901819055504283600a01819055505050505b5050565b6005602052805f5260405f205f91509050805f015490806001015f9054906101000a900460ff1690806002015490806003015490806004015f9054906101000a900473ffffffffffffffffffffffffffffffffffffffff169080600501549080600601549080600701549080600801549080600901549080600a015490508b565b8060016003811115610a2c57610a2b613dd7565b5b60025f8381526020019081526020015f206007015f9054906101000a900460ff166003811115610a5f57610a5e613dd7565b5b14610a9f576040517f08c379a0000000000000000000000000000000000000000000000000000000008152600401610a96906149b8565b60405180910390fd5b5f60025f8481526020019081526020015f2090505f816001015f9054906101000a900473ffffffffffffffffffffffffffffffffffffffff16826003015f9054906101000a900473ffffffffffffffffffffffffffffffffffffffff16604051602001610b0d929190614a1b565b604051602081830303815290604052805190602001205f1c90505f60015f8381526020019081526020015f2090505f60075f9054906101000a900473ffffffffffffffffffffffffffffffffffffffff1673ffffffffffffffffffffffffffffffffffffffff1663d15e0053856003015f9054906101000a900473ffffffffffffffffffffffffffffffffffffffff166040518263ffffffff1660e01b8152600401610bb99190614319565b602060405180830381865afa158015610bd4573d5f5f3e3d5ffd5b505050506040513d601f19601f82011682018060405250810190610bf891906145c9565b90505f6b033b2e3c9fd0803ce8000000828460020154610c189190614802565b610c229190614870565b90505f60055f876004015481526020019081526020015f206003015490505f86600501546b033b2e3c9fd0803ce800000060055f8a6004015481526020019081526020015f20600901548960020154610c7b9190614802565b610c859190614870565b610c8f9190614908565b90505f610cc48860040154838a6003015f9054906101000a900473ffffffffffffffffffffffffffffffffffffffff16610562565b90505f81670de0b6b3a764000086610cdc9190614802565b610ce69190614870565b9050838110610d2a576040517f08c379a0000000000000000000000000000000000000000000000000000000008152600401610d2190614a90565b60405180910390fd5b6003896007015f6101000a81548160ff02191690836003811115610d5157610d50613dd7565b5b02179055505f896006015490505f8a600601819055508760040154811115610d81575f8860040181905550610d9c565b80886004015f828254610d949190614908565b925050819055505b896001015f9054906101000a900473ffffffffffffffffffffffffffffffffffffffff1673ffffffffffffffffffffffffffffffffffffffff168c7fcafca847a6c6645c7dd7bb55a47759cd884f49bd6e8c273f4ee701e8b81bcda083604051610e069190613d75565b60405180910390a3505050505050505050505050565b610e2461323f565b5f5f1b60055f8b81526020019081526020015f205f015403610e7b576040517f08c379a0000000000000000000000000000000000000000000000000000000008152600401610e729061457e565b60405180910390fd5b670de0b6b3a7640000861015610ec6576040517f08c379a0000000000000000000000000000000000000000000000000000000008152600401610ebd90614af8565b60405180910390fd5b670de0b6b3a7640000851015610f11576040517f08c379a0000000000000000000000000000000000000000000000000000000008152600401610f0890614b60565b60405180910390fd5b85851115610f54576040517f08c379a0000000000000000000000000000000000000000000000000000000008152600401610f4b90614bc8565b60405180910390fd5b60128860ff161115610f9b576040517f08c379a0000000000000000000000000000000000000000000000000000000008152600401610f9290614c30565b60405180910390fd5b8760055f8b81526020019081526020015f206001015f6101000a81548160ff021916908360ff1602179055508660055f8b81526020019081526020015f206004015f6101000a81548173ffffffffffffffffffffffffffffffffffffffff021916908373ffffffffffffffffffffffffffffffffffffffff1602179055508560055f8b81526020019081526020015f20600201819055508460055f8b81526020019081526020015f20600301819055508360055f8b81526020019081526020015f20600501819055508260055f8b81526020019081526020015f20600601819055508160055f8b81526020019081526020015f20600701819055508060055f8b81526020019081526020015f2060080181905550505050505050505050565b6003602052805f5260405f205f91509050805f015490806001015f9054906101000a900473ffffffffffffffffffffffffffffffffffffffff1690806002015f9054906101000a900473ffffffffffffffffffffffffffffffffffffffff1690806003015490806004015490806005015f9054906101000a900460ff16905086565b61114461323f565b60405180606001604052808473ffffffffffffffffffffffffffffffffffffffff1681526020018360ff16815260200182151581525060045f8573ffffffffffffffffffffffffffffffffffffffff1673ffffffffffffffffffffffffffffffffffffffff1681526020019081526020015f205f820151815f015f6101000a81548173ffffffffffffffffffffffffffffffffffffffff021916908373ffffffffffffffffffffffffffffffffffffffff1602179055506020820151815f0160146101000a81548160ff021916908360ff1602179055506040820151815f0160156101000a81548160ff021916908315150217905550905050505050565b5f5f60055f8681526020019081526020015f2090505f5f1b815f01540361129e576040517f08c379a00000000000000000000000000000000000000000000000000000000081526004016112959061457e565b60405180910390fd5b5f816004015f9054906101000a900473ffffffffffffffffffffffffffffffffffffffff1673ffffffffffffffffffffffffffffffffffffffff166331d98b3f876040518263ffffffff1660e01b81526004016112fb919061459c565b602060405180830381865afa158015611316573d5f5f3e3d5ffd5b505050506040513d601f19601f8201168201806040525081019061133a91906145c9565b90505f811161137e576040517f08c379a00000000000000000000000000000000000000000000000000000000081526004016113759061463e565b60405180910390fd5b5f60045f8673ffffffffffffffffffffffffffffffffffffffff1673ffffffffffffffffffffffffffffffffffffffff1681526020019081526020015f205f0160149054906101000a900460ff1690505f81600a6113dc91906147b8565b83886113e89190614802565b6113f29190614870565b9050809450505050509392505050565b61140a61323f565b6114135f613b86565b565b816001600381111561142a57611429613dd7565b5b60025f8381526020019081526020015f206007015f9054906101000a900460ff16600381111561145d5761145c613dd7565b5b1461149d576040517f08c379a0000000000000000000000000000000000000000000000000000000008152600401611494906149b8565b60405180910390fd5b5f60025f8581526020019081526020015f2090503373ffffffffffffffffffffffffffffffffffffffff16816001015f9054906101000a900473ffffffffffffffffffffffffffffffffffffffff1673ffffffffffffffffffffffffffffffffffffffff1614611542576040517f08c379a000000000000000000000000000000000000000000000000000000000815260040161153990614c98565b60405180910390fd5b6115738160040154826003015f9054906101000a900473ffffffffffffffffffffffffffffffffffffffff166108e3565b5f6b033b2e3c9fd0803ce800000060055f846004015481526020019081526020015f206009015483600201546115a99190614802565b6115b39190614870565b90505f8260050154826115c69190614908565b90508085111561160b576040517f08c379a000000000000000000000000000000000000000000000000000000000815260040161160290614d00565b60405180910390fd5b5f5f84600601541461163757818685600601546116289190614802565b6116329190614870565b611639565b5f5b90505f81111561170e575f33856003015f9054906101000a900473ffffffffffffffffffffffffffffffffffffffff1660405160200161167a929190614a1b565b604051602081830303815290604052805190602001205f1c90505f60015f8381526020019081526020015f20905085600601548311156116bc57856006015492505b82866006015f8282546116cf9190614908565b9250508190555080600401548311156116f0575f816004018190555061170b565b82816004015f8282546117039190614908565b925050819055505b50505b85846005015f828254611721919061493b565b925050819055505f86836117359190614908565b90505f8103611774576002856007015f6101000a81548160ff0219169083600381111561176557611764613dd7565b5b02179055505f85600601819055505b3373ffffffffffffffffffffffffffffffffffffffff16887f7286470d0bd901fa4ff8d062b3b5ce502e61f2a6cd10fd91e0924e0f19f6ff9687600401548a856040516117c393929190614d1e565b60405180910390a35050505050505050565b5f5f60055f8581526020019081526020015f2090505f73ffffffffffffffffffffffffffffffffffffffff16816004015f9054906101000a900473ffffffffffffffffffffffffffffffffffffffff1673ffffffffffffffffffffffffffffffffffffffff160361184d57806005015491505061196d565b5f611864825f0154670de0b6b3a764000086610562565b90505f810361187b5781600501549250505061196d565b5f670de0b6b3a764000082106118d757670de0b6b3a76400008360080154670de0b6b3a7640000846118ad9190614908565b6118b79190614802565b6118c19190614870565b83600501546118d0919061493b565b905061193a565b5f670de0b6b3a7640000846008015484670de0b6b3a76400006118fa9190614908565b6119049190614802565b61190e9190614870565b905080846005015411611925578360060154611936565b8084600501546119359190614908565b5b9150505b826007015481116119615782600601548110611956578061195c565b82600601545b611967565b82600701545b93505050505b92915050565b5f5f5f9054906101000a900473ffffffffffffffffffffffffffffffffffffffff16905090565b6119a261323f565b5f82829050116119e7576040517f08c379a00000000000000000000000000000000000000000000000000000000081526004016119de90614d9d565b60405180910390fd5b6032828290501115611a2e576040517f08c379a0000000000000000000000000000000000000000000000000000000008152600401611a2590614e05565b60405180910390fd5b5f5f90505b82829050811015611c47575f838383818110611a5257611a51614e23565b5b9050602002013590505f73ffffffffffffffffffffffffffffffffffffffff1660035f8381526020019081526020015f206001015f9054906101000a900473ffffffffffffffffffffffffffffffffffffffff1673ffffffffffffffffffffffffffffffffffffffff1603611afc576040517f08c379a0000000000000000000000000000000000000000000000000000000008152600401611af390614e9a565b60405180910390fd5b5f6002811115611b0f57611b0e613dd7565b5b60035f8381526020019081526020015f206005015f9054906101000a900460ff166002811115611b4257611b41613dd7565b5b14611b82576040517f08c379a0000000000000000000000000000000000000000000000000000000008152600401611b7990614f02565b60405180910390fd5b5f60035f8381526020019081526020015f2090506002816005015f6101000a81548160ff02191690836002811115611bbd57611bbc613dd7565b5b0217905550806001015f9054906101000a900473ffffffffffffffffffffffffffffffffffffffff1673ffffffffffffffffffffffffffffffffffffffff16827f8937e6f306c77b04d48b98eac97aed7cdc49f29bd971f29b4eb52f3e7d66e4e68360030154604051611c30919061459c565b60405180910390a350508080600101915050611a33565b505050565b60075f9054906101000a900473ffffffffffffffffffffffffffffffffffffffff1681565b611c7961323f565b5f73ffffffffffffffffffffffffffffffffffffffff1660045f8573ffffffffffffffffffffffffffffffffffffffff1673ffffffffffffffffffffffffffffffffffffffff1681526020019081526020015f205f015f9054906101000a900473ffffffffffffffffffffffffffffffffffffffff1673ffffffffffffffffffffffffffffffffffffffff1603611d45576040517f08c379a0000000000000000000000000000000000000000000000000000000008152600401611d3c90614f6a565b60405180910390fd5b8160045f8573ffffffffffffffffffffffffffffffffffffffff1673ffffffffffffffffffffffffffffffffffffffff1681526020019081526020015f205f0160146101000a81548160ff021916908360ff1602179055508060045f8573ffffffffffffffffffffffffffffffffffffffff1673ffffffffffffffffffffffffffffffffffffffff1681526020019081526020015f205f0160156101000a81548160ff021916908315150217905550505050565b611e0161323f565b670de0b6b3a7640000861015611e4c576040517f08c379a0000000000000000000000000000000000000000000000000000000008152600401611e4390614af8565b60405180910390fd5b670de0b6b3a7640000851015611e97576040517f08c379a0000000000000000000000000000000000000000000000000000000008152600401611e8e90614b60565b60405180910390fd5b85851115611eda576040517f08c379a0000000000000000000000000000000000000000000000000000000008152600401611ed190614bc8565b60405180910390fd5b60128860ff161115611f21576040517f08c379a0000000000000000000000000000000000000000000000000000000008152600401611f1890614c30565b60405180910390fd5b6040518061016001604052808a81526020018960ff1681526020018781526020018681526020018873ffffffffffffffffffffffffffffffffffffffff1681526020018581526020018481526020018381526020018281526020016b033b2e3c9fd0803ce800000081526020014281525060055f8b81526020019081526020015f205f820151815f01556020820151816001015f6101000a81548160ff021916908360ff16021790555060408201518160020155606082015181600301556080820151816004015f6101000a81548173ffffffffffffffffffffffffffffffffffffffff021916908373ffffffffffffffffffffffffffffffffffffffff16021790555060a0820151816005015560c0820151816006015560e082015181600701556101008201518160080155610120820151816009015561014082015181600a0155905050505050505050505050565b5f5f1b60055f8381526020019081526020015f205f0154036120c9576040517f08c379a00000000000000000000000000000000000000000000000000000000081526004016120c09061457e565b60405180910390fd5b5f33846040516020016120dd929190614a1b565b604051602081830303815290604052805190602001205f1c90505f73ffffffffffffffffffffffffffffffffffffffff1660015f8381526020019081526020015f206001015f9054906101000a900473ffffffffffffffffffffffffffffffffffffffff1673ffffffffffffffffffffffffffffffffffffffff1603612198576040517f08c379a000000000000000000000000000000000000000000000000000000000815260040161218f90614fd2565b60405180910390fd5b6001808111156121ab576121aa613dd7565b5b60015f8381526020019081526020015f206005015f9054906101000a900460ff1660018111156121de576121dd613dd7565b5b1461221e576040517f08c379a00000000000000000000000000000000000000000000000000000000081526004016122159061503a565b60405180910390fd5b5f33858460065f3373ffffffffffffffffffffffffffffffffffffffff1673ffffffffffffffffffffffffffffffffffffffff1681526020019081526020015f205f81548092919061226f90615058565b9190505560405160200161228694939291906150df565b604051602081830303815290604052805190602001205f1c90505f60035f8381526020019081526020015f20905081815f018190555033816001015f6101000a81548173ffffffffffffffffffffffffffffffffffffffff021916908373ffffffffffffffffffffffffffffffffffffffff16021790555085816002015f6101000a81548173ffffffffffffffffffffffffffffffffffffffff021916908373ffffffffffffffffffffffffffffffffffffffff1602179055508381600301819055508481600401819055505f816005015f6101000a81548160ff0219169083600281111561237857612377613dd7565b5b02179055503373ffffffffffffffffffffffffffffffffffffffff16827fa55c4369aff0ed03ab13a60924ab142ec9ac257a9175dc079fa4214d236e86218887896040516123c89392919061512c565b60405180910390a3505050505050565b6004602052805f5260405f205f91509050805f015f9054906101000a900473ffffffffffffffffffffffffffffffffffffffff1690805f0160149054906101000a900460ff1690805f0160159054906101000a900460ff16905083565b61243d61323f565b5f8282905011612482576040517f08c379a000000000000000000000000000000000000000000000000000000000815260040161247990614d9d565b60405180910390fd5b60328282905011156124c9576040517f08c379a00000000000000000000000000000000000000000000000000000000081526004016124c090614e05565b60405180910390fd5b5f5f90505b82829050811015612634575f8383838181106124ed576124ec614e23565b5b9050602002013590505f73ffffffffffffffffffffffffffffffffffffffff1660035f8381526020019081526020015f206001015f9054906101000a900473ffffffffffffffffffffffffffffffffffffffff1673ffffffffffffffffffffffffffffffffffffffff1603612597576040517f08c379a000000000000000000000000000000000000000000000000000000000815260040161258e90614e9a565b60405180910390fd5b5f60028111156125aa576125a9613dd7565b5b60035f8381526020019081526020015f206005015f9054906101000a900460ff1660028111156125dd576125dc613dd7565b5b1461261d576040517f08c379a000000000000000000000000000000000000000000000000000000000815260040161261490614f02565b60405180910390fd5b612626816132c6565b5080806001019150506124ce565b505050565b815f73ffffffffffffffffffffffffffffffffffffffff1660015f8381526020019081526020015f206001015f9054906101000a900473ffffffffffffffffffffffffffffffffffffffff1673ffffffffffffffffffffffffffffffffffffffff16036126db576040517f08c379a00000000000000000000000000000000000000000000000000000000081526004016126d290614fd2565b60405180910390fd5b5f60015f8581526020019081526020015f2090503373ffffffffffffffffffffffffffffffffffffffff16816001015f9054906101000a900473ffffffffffffffffffffffffffffffffffffffff1673ffffffffffffffffffffffffffffffffffffffff1614612780576040517f08c379a0000000000000000000000000000000000000000000000000000000008152600401612777906151ab565b60405180910390fd5b60018081111561279357612792613dd7565b5b816005015f9054906101000a900460ff1660018111156127b6576127b5613dd7565b5b146127f6576040517f08c379a00000000000000000000000000000000000000000000000000000000081526004016127ed9061503a565b60405180910390fd5b5f60075f9054906101000a900473ffffffffffffffffffffffffffffffffffffffff1673ffffffffffffffffffffffffffffffffffffffff1663d15e0053836003015f9054906101000a900473ffffffffffffffffffffffffffffffffffffffff166040518263ffffffff1660e01b81526004016128749190614319565b602060405180830381865afa15801561288f573d5f5f3e3d5ffd5b505050506040513d601f19601f820116820180604052508101906128b391906145c9565b90505f6b033b2e3c9fd0803ce80000008284600201546128d39190614802565b6128dd9190614870565b90505f836004015482116128f1575f612902565b8360040154826129019190614908565b5b905080861115612947576040517f08c379a000000000000000000000000000000000000000000000000000000000815260040161293e90615239565b60405180910390fd5b826b033b2e3c9fd0803ce8000000876129609190614802565b61296a9190614870565b846002015f82825461297c9190614908565b92505081905550836003015f9054906101000a900473ffffffffffffffffffffffffffffffffffffffff1673ffffffffffffffffffffffffffffffffffffffff1663a9059cbb33886040518363ffffffff1660e01b81526004016129e1929190615257565b6020604051808303815f875af11580156129fd573d5f5f3e3d5ffd5b505050506040513d601f19601f82011682018060405250810190612a219190615292565b505f6b033b2e3c9fd0803ce8000000848660020154612a409190614802565b612a4a9190614870565b90503373ffffffffffffffffffffffffffffffffffffffff16887f9b428505f66eb97a59c61cf227d2f3f58176d846d5406910e2cc7328f0078a15876003015f9054906101000a900473ffffffffffffffffffffffffffffffffffffffff168a85604051612aba939291906152bd565b60405180910390a35050505050505050565b612ad461323f565b805f6002811115612ae857612ae7613dd7565b5b60035f8381526020019081526020015f206005015f9054906101000a900460ff166002811115612b1b57612b1a613dd7565b5b14612b5b576040517f08c379a0000000000000000000000000000000000000000000000000000000008152600401612b52906148ea565b60405180910390fd5b5f60035f8481526020019081526020015f2090506002816005015f6101000a81548160ff02191690836002811115612b9657612b95613dd7565b5b0217905550806001015f9054906101000a900473ffffffffffffffffffffffffffffffffffffffff1673ffffffffffffffffffffffffffffffffffffffff16837f8937e6f306c77b04d48b98eac97aed7cdc49f29bd971f29b4eb52f3e7d66e4e68360030154604051612c09919061459c565b60405180910390a3505050565b60045f8373ffffffffffffffffffffffffffffffffffffffff1673ffffffffffffffffffffffffffffffffffffffff1681526020019081526020015f205f0160159054906101000a900460ff16612ca2576040517f08c379a0000000000000000000000000000000000000000000000000000000008152600401612c9990614f6a565b60405180910390fd5b5f8111612ce4576040517f08c379a0000000000000000000000000000000000000000000000000000000008152600401612cdb9061533c565b60405180910390fd5b8173ffffffffffffffffffffffffffffffffffffffff166323b872dd3330846040518463ffffffff1660e01b8152600401612d219392919061535a565b6020604051808303815f875af1158015612d3d573d5f5f3e3d5ffd5b505050506040513d601f19601f82011682018060405250810190612d619190615292565b505f60075f9054906101000a900473ffffffffffffffffffffffffffffffffffffffff1673ffffffffffffffffffffffffffffffffffffffff1663d15e0053846040518263ffffffff1660e01b8152600401612dbd9190614319565b602060405180830381865afa158015612dd8573d5f5f3e3d5ffd5b505050506040513d601f19601f82011682018060405250810190612dfc91906145c9565b90508273ffffffffffffffffffffffffffffffffffffffff1663095ea7b360075f9054906101000a900473ffffffffffffffffffffffffffffffffffffffff16846040518363ffffffff1660e01b8152600401612e5a929190615257565b6020604051808303815f875af1158015612e76573d5f5f3e3d5ffd5b505050506040513d601f19601f82011682018060405250810190612e9a9190615292565b5060075f9054906101000a900473ffffffffffffffffffffffffffffffffffffffff1673ffffffffffffffffffffffffffffffffffffffff1663617ba0378484305f6040518563ffffffff1660e01b8152600401612efb94939291906153d5565b5f604051808303815f87803b158015612f12575f5ffd5b505af1158015612f24573d5f5f3e3d5ffd5b505050505f3384604051602001612f3c929190614a1b565b604051602081830303815290604052805190602001205f1c90505f60015f8381526020019081526020015f2090505f73ffffffffffffffffffffffffffffffffffffffff16816001015f9054906101000a900473ffffffffffffffffffffffffffffffffffffffff1673ffffffffffffffffffffffffffffffffffffffff16036130f95781815f018190555033816001015f6101000a81548173ffffffffffffffffffffffffffffffffffffffff021916908373ffffffffffffffffffffffffffffffffffffffff16021790555084816003015f6101000a81548173ffffffffffffffffffffffffffffffffffffffff021916908373ffffffffffffffffffffffffffffffffffffffff1602179055506001816005015f6101000a81548160ff0219169083600181111561307357613072613dd7565b5b0217905550826b033b2e3c9fd0803ce8000000856130919190614802565b61309b9190614870565b81600201819055503373ffffffffffffffffffffffffffffffffffffffff16827fe444d2a6f4f32614aa450e0c5369ce74010fb684b174695a9e8aa25ebeeef87687876040516130ec929190615257565b60405180910390a36131b4565b826b033b2e3c9fd0803ce8000000856131129190614802565b61311c9190614870565b816002015f82825461312e919061493b565b925050819055505f6b033b2e3c9fd0803ce80000008483600201546131539190614802565b61315d9190614870565b90503373ffffffffffffffffffffffffffffffffffffffff16837fdbdd339b6805c74c39b0ed1749123878f43ed527e6ea1f4bacc6ae2563e166a18888856040516131aa939291906152bd565b60405180910390a3505b5050505050565b6131c361323f565b5f73ffffffffffffffffffffffffffffffffffffffff168173ffffffffffffffffffffffffffffffffffffffff1603613233575f6040517f1e4fbdf700000000000000000000000000000000000000000000000000000000815260040161322a9190614319565b60405180910390fd5b61323c81613b86565b50565b613247613c47565b73ffffffffffffffffffffffffffffffffffffffff16613265611973565b73ffffffffffffffffffffffffffffffffffffffff16146132c457613288613c47565b6040517f118cdaa70000000000000000000000000000000000000000000000000000000081526004016132bb9190614319565b60405180910390fd5b565b5f60035f8381526020019081526020015f20905061330b8160030154826002015f9054906101000a900473ffffffffffffffffffffffffffffffffffffffff166108e3565b5f5f826001015f9054906101000a900473ffffffffffffffffffffffffffffffffffffffff16836002015f9054906101000a900473ffffffffffffffffffffffffffffffffffffffff16604051602001613366929190614a1b565b604051602081830303815290604052805190602001205f1c90505f60015f8381526020019081526020015f2090505f73ffffffffffffffffffffffffffffffffffffffff16816001015f9054906101000a900473ffffffffffffffffffffffffffffffffffffffff1673ffffffffffffffffffffffffffffffffffffffff1603613425576040517f08c379a000000000000000000000000000000000000000000000000000000000815260040161341c90614fd2565b60405180910390fd5b60018081111561343857613437613dd7565b5b816005015f9054906101000a900460ff16600181111561345b5761345a613dd7565b5b1461349b576040517f08c379a00000000000000000000000000000000000000000000000000000000081526004016134929061503a565b60405180910390fd5b5f6134d285600301548660040154876002015f9054906101000a900473ffffffffffffffffffffffffffffffffffffffff16610562565b9050670de0b6b3a764000060055f876003015481526020019081526020015f2060020154826135019190614802565b61350b9190614870565b93505f60075f9054906101000a900473ffffffffffffffffffffffffffffffffffffffff1673ffffffffffffffffffffffffffffffffffffffff1663d15e0053876002015f9054906101000a900473ffffffffffffffffffffffffffffffffffffffff166040518263ffffffff1660e01b815260040161358b9190614319565b602060405180830381865afa1580156135a6573d5f5f3e3d5ffd5b505050506040513d601f19601f820116820180604052508101906135ca91906145c9565b90505f6b033b2e3c9fd0803ce80000008285600201546135ea9190614802565b6135f49190614870565b90505f84600401548211613608575f613619565b8460040154826136189190614908565b5b90508681101561365e576040517f08c379a000000000000000000000000000000000000000000000000000000000815260040161365590615462565b60405180910390fd5b5050505050505f826001015f9054906101000a900473ffffffffffffffffffffffffffffffffffffffff16836002015f9054906101000a900473ffffffffffffffffffffffffffffffffffffffff1684600301546040516020016136c493929190615480565b604051602081830303815290604052805190602001205f1c90505f60025f8381526020019081526020015f2090505f73ffffffffffffffffffffffffffffffffffffffff16816001015f9054906101000a900473ffffffffffffffffffffffffffffffffffffffff1673ffffffffffffffffffffffffffffffffffffffff16036138735781815f0181905550836001015f9054906101000a900473ffffffffffffffffffffffffffffffffffffffff16816001015f6101000a81548173ffffffffffffffffffffffffffffffffffffffff021916908373ffffffffffffffffffffffffffffffffffffffff160217905550836002015f9054906101000a900473ffffffffffffffffffffffffffffffffffffffff16816003015f6101000a81548173ffffffffffffffffffffffffffffffffffffffff021916908373ffffffffffffffffffffffffffffffffffffffff160217905550836003015481600401819055505f81600501819055505f81600201819055505f81600601819055506001816007015f6101000a81548160ff0219169083600381111561386957613868613dd7565b5b02179055506138f8565b6001600381111561388757613886613dd7565b5b816007015f9054906101000a900460ff1660038111156138aa576138a9613dd7565b5b146138f7575f81600501819055505f81600201819055505f81600601819055506001816007015f6101000a81548160ff021916908360038111156138f1576138f0613dd7565b5b02179055505b5b60055f856003015481526020019081526020015f20600901546b033b2e3c9fd0803ce8000000856004015461392d9190614802565b6139379190614870565b816002015f828254613949919061493b565b9250508190555082816006015f828254613963919061493b565b925050819055505f846001015f9054906101000a900473ffffffffffffffffffffffffffffffffffffffff16856002015f9054906101000a900473ffffffffffffffffffffffffffffffffffffffff166040516020016139c4929190614a1b565b604051602081830303815290604052805190602001205f1c90508360015f8381526020019081526020015f206004015f828254613a01919061493b565b92505081905550506001846005015f6101000a81548160ff02191690836002811115613a3057613a2f613dd7565b5b0217905550836001015f9054906101000a900473ffffffffffffffffffffffffffffffffffffffff1673ffffffffffffffffffffffffffffffffffffffff1682867faaf1b9dda6e5b73a1dc539cf62c7b20f0c46173cfba1bc5da3310149bcec52ca8760030154886004015488604051613aac93929190614d1e565b60405180910390a4836001015f9054906101000a900473ffffffffffffffffffffffffffffffffffffffff1673ffffffffffffffffffffffffffffffffffffffff16827f02e8f16400462bac5b76c47d7120d06970d5173ecedec35c70618dd5940d18c98660030154876004015485600501546b033b2e3c9fd0803ce800000060055f8c6003015481526020019081526020015f20600901548860020154613b549190614802565b613b5e9190614870565b613b689190614908565b604051613b7793929190614d1e565b60405180910390a35050505050565b5f5f5f9054906101000a900473ffffffffffffffffffffffffffffffffffffffff169050815f5f6101000a81548173ffffffffffffffffffffffffffffffffffffffff021916908373ffffffffffffffffffffffffffffffffffffffff1602179055508173ffffffffffffffffffffffffffffffffffffffff168173ffffffffffffffffffffffffffffffffffffffff167f8be0079c531659141344cd1fd0a4f28419497f9722a3daafe3b4186f6b6457e060405160405180910390a35050565b5f33905090565b5f5ffd5b5f5ffd5b5f819050919050565b613c6881613c56565b8114613c72575f5ffd5b50565b5f81359050613c8381613c5f565b92915050565b5f819050919050565b613c9b81613c89565b8114613ca5575f5ffd5b50565b5f81359050613cb681613c92565b92915050565b5f73ffffffffffffffffffffffffffffffffffffffff82169050919050565b5f613ce582613cbc565b9050919050565b613cf581613cdb565b8114613cff575f5ffd5b50565b5f81359050613d1081613cec565b92915050565b5f5f5f60608486031215613d2d57613d2c613c4e565b5b5f613d3a86828701613c75565b9350506020613d4b86828701613ca8565b9250506040613d5c86828701613d02565b9150509250925092565b613d6f81613c89565b82525050565b5f602082019050613d885f830184613d66565b92915050565b5f60208284031215613da357613da2613c4e565b5b5f613db084828501613ca8565b91505092915050565b613dc281613cdb565b82525050565b613dd181613c56565b82525050565b7f4e487b71000000000000000000000000000000000000000000000000000000005f52602160045260245ffd5b60048110613e1557613e14613dd7565b5b50565b5f819050613e2582613e04565b919050565b5f613e3482613e18565b9050919050565b613e4481613e2a565b82525050565b5f61010082019050613e5e5f83018b613d66565b613e6b602083018a613db9565b613e786040830189613d66565b613e856060830188613db9565b613e926080830187613dc8565b613e9f60a0830186613d66565b613eac60c0830185613d66565b613eb960e0830184613e3b565b9998505050505050505050565b60028110613ed757613ed6613dd7565b5b50565b5f819050613ee782613ec6565b919050565b5f613ef682613eda565b9050919050565b613f0681613eec565b82525050565b5f60c082019050613f1f5f830189613d66565b613f2c6020830188613db9565b613f396040830187613d66565b613f466060830186613db9565b613f536080830185613d66565b613f6060a0830184613efd565b979650505050505050565b5f60208284031215613f8057613f7f613c4e565b5b5f613f8d84828501613d02565b91505092915050565b5f5f60408385031215613fac57613fab613c4e565b5b5f613fb985828601613c75565b9250506020613fca85828601613d02565b9150509250929050565b5f60208284031215613fe957613fe8613c4e565b5b5f613ff684828501613c75565b91505092915050565b5f60ff82169050919050565b61401481613fff565b82525050565b5f6101608201905061402e5f83018e613dc8565b61403b602083018d61400b565b614048604083018c613d66565b614055606083018b613d66565b614062608083018a613db9565b61406f60a0830189613d66565b61407c60c0830188613d66565b61408960e0830187613d66565b614097610100830186613d66565b6140a5610120830185613d66565b6140b3610140830184613d66565b9c9b505050505050505050505050565b6140cc81613fff565b81146140d6575f5ffd5b50565b5f813590506140e7816140c3565b92915050565b5f5f5f5f5f5f5f5f5f6101208a8c03121561410b5761410a613c4e565b5b5f6141188c828d01613c75565b99505060206141298c828d016140d9565b985050604061413a8c828d01613d02565b975050606061414b8c828d01613ca8565b965050608061415c8c828d01613ca8565b95505060a061416d8c828d01613ca8565b94505060c061417e8c828d01613ca8565b93505060e061418f8c828d01613ca8565b9250506101006141a18c828d01613ca8565b9150509295985092959850929598565b600381106141c2576141c1613dd7565b5b50565b5f8190506141d2826141b1565b919050565b5f6141e1826141c5565b9050919050565b6141f1816141d7565b82525050565b5f60c08201905061420a5f830189613d66565b6142176020830188613db9565b6142246040830187613db9565b6142316060830186613dc8565b61423e6080830185613d66565b61424b60a08301846141e8565b979650505050505050565b5f8115159050919050565b61426a81614256565b8114614274575f5ffd5b50565b5f8135905061428581614261565b92915050565b5f5f5f606084860312156142a2576142a1613c4e565b5b5f6142af86828701613d02565b93505060206142c0868287016140d9565b92505060406142d186828701614277565b9150509250925092565b5f5f604083850312156142f1576142f0613c4e565b5b5f6142fe85828601613ca8565b925050602061430f85828601613ca8565b9150509250929050565b5f60208201905061432c5f830184613db9565b92915050565b5f5ffd5b5f5ffd5b5f5ffd5b5f5f83601f84011261435357614352614332565b5b8235905067ffffffffffffffff8111156143705761436f614336565b5b60208301915083602082028301111561438c5761438b61433a565b5b9250929050565b5f5f602083850312156143a9576143a8613c4e565b5b5f83013567ffffffffffffffff8111156143c6576143c5613c52565b5b6143d28582860161433e565b92509250509250929050565b5f819050919050565b5f6144016143fc6143f784613cbc565b6143de565b613cbc565b9050919050565b5f614412826143e7565b9050919050565b5f61442382614408565b9050919050565b61443381614419565b82525050565b5f60208201905061444c5f83018461442a565b92915050565b5f5f5f6060848603121561446957614468613c4e565b5b5f61447686828701613d02565b935050602061448786828701613ca8565b925050604061449886828701613c75565b9150509250925092565b6144ab81614256565b82525050565b5f6060820190506144c45f830186613db9565b6144d1602083018561400b565b6144de60408301846144a2565b949350505050565b5f5f604083850312156144fc576144fb613c4e565b5b5f61450985828601613d02565b925050602061451a85828601613ca8565b9150509250929050565b5f82825260208201905092915050565b7f43757272656e6379206e6f7420737570706f72746564000000000000000000005f82015250565b5f614568601683614524565b915061457382614534565b602082019050919050565b5f6020820190508181035f8301526145958161455c565b9050919050565b5f6020820190506145af5f830184613dc8565b92915050565b5f815190506145c381613c92565b92915050565b5f602082840312156145de576145dd613c4e565b5b5f6145eb848285016145b5565b91505092915050565b7f50726963652063616e6e6f74206265207a65726f0000000000000000000000005f82015250565b5f614628601483614524565b9150614633826145f4565b602082019050919050565b5f6020820190508181035f8301526146558161461c565b9050919050565b7f4e487b71000000000000000000000000000000000000000000000000000000005f52601160045260245ffd5b5f8160011c9050919050565b5f5f8291508390505b60018511156146de578086048111156146ba576146b961465c565b5b60018516156146c95780820291505b80810290506146d785614689565b945061469e565b94509492505050565b5f826146f657600190506147b1565b81614703575f90506147b1565b8160018114614719576002811461472357614752565b60019150506147b1565b60ff8411156147355761473461465c565b5b8360020a91508482111561474c5761474b61465c565b5b506147b1565b5060208310610133831016604e8410600b84101617156147875782820a9050838111156147825761478161465c565b5b6147b1565b6147948484846001614695565b925090508184048111156147ab576147aa61465c565b5b81810290505b9392505050565b5f6147c282613c89565b91506147cd83613fff565b92506147fa7fffffffffffffffffffffffffffffffffffffffffffffffffffffffffffffffff84846146e7565b905092915050565b5f61480c82613c89565b915061481783613c89565b925082820261482581613c89565b9150828204841483151761483c5761483b61465c565b5b5092915050565b7f4e487b71000000000000000000000000000000000000000000000000000000005f52601260045260245ffd5b5f61487a82613c89565b915061488583613c89565b92508261489557614894614843565b5b828204905092915050565b7f6e6f742070656e64696e670000000000000000000000000000000000000000005f82015250565b5f6148d4600b83614524565b91506148df826148a0565b602082019050919050565b5f6020820190508181035f830152614901816148c8565b9050919050565b5f61491282613c89565b915061491d83613c89565b92508282039050818111156149355761493461465c565b5b92915050565b5f61494582613c89565b915061495083613c89565b92508282019050808211156149685761496761465c565b5b92915050565b7f6e6f7420616374697665000000000000000000000000000000000000000000005f82015250565b5f6149a2600a83614524565b91506149ad8261496e565b602082019050919050565b5f6020820190508181035f8301526149cf81614996565b9050919050565b5f8160601b9050919050565b5f6149ec826149d6565b9050919050565b5f6149fd826149e2565b9050919050565b614a15614a1082613cdb565b6149f3565b82525050565b5f614a268285614a04565b601482019150614a368284614a04565b6014820191508190509392505050565b7f6e6f74206c6971756964617461626c65000000000000000000000000000000005f82015250565b5f614a7a601083614524565b9150614a8582614a46565b602082019050919050565b5f6020820190508181035f830152614aa781614a6e565b9050919050565b7f636f6c6c6174203e3d20313030250000000000000000000000000000000000005f82015250565b5f614ae2600e83614524565b9150614aed82614aae565b602082019050919050565b5f6020820190508181035f830152614b0f81614ad6565b9050919050565b7f6c6971203e3d20313030250000000000000000000000000000000000000000005f82015250565b5f614b4a600b83614524565b9150614b5582614b16565b602082019050919050565b5f6020820190508181035f830152614b7781614b3e565b9050919050565b7f6c6971203c3d20636f6c6c6174000000000000000000000000000000000000005f82015250565b5f614bb2600d83614524565b9150614bbd82614b7e565b602082019050919050565b5f6020820190508181035f830152614bdf81614ba6565b9050919050565b7f646563696d616c73203c3d2031380000000000000000000000000000000000005f82015250565b5f614c1a600e83614524565b9150614c2582614be6565b602082019050919050565b5f6020820190508181035f830152614c4781614c0e565b9050919050565b7f6e6f7420796f757220626f72726f7700000000000000000000000000000000005f82015250565b5f614c82600f83614524565b9150614c8d82614c4e565b602082019050919050565b5f6020820190508181035f830152614caf81614c76565b9050919050565b7f65786365656473206f77656400000000000000000000000000000000000000005f82015250565b5f614cea600c83614524565b9150614cf582614cb6565b602082019050919050565b5f6020820190508181035f830152614d1781614cde565b9050919050565b5f606082019050614d315f830186613dc8565b614d3e6020830185613d66565b614d4b6040830184613d66565b949350505050565b7f456d7074792061727261790000000000000000000000000000000000000000005f82015250565b5f614d87600b83614524565b9150614d9282614d53565b602082019050919050565b5f6020820190508181035f830152614db481614d7b565b9050919050565b7f546f6f206d616e792072657175657374730000000000000000000000000000005f82015250565b5f614def601183614524565b9150614dfa82614dbb565b602082019050919050565b5f6020820190508181035f830152614e1c81614de3565b9050919050565b7f4e487b71000000000000000000000000000000000000000000000000000000005f52603260045260245ffd5b7f52657175657374206e6f7420666f756e640000000000000000000000000000005f82015250565b5f614e84601183614524565b9150614e8f82614e50565b602082019050919050565b5f6020820190508181035f830152614eb181614e78565b9050919050565b7f52657175657374206e6f742070656e64696e67000000000000000000000000005f82015250565b5f614eec601383614524565b9150614ef782614eb8565b602082019050919050565b5f6020820190508181035f830152614f1981614ee0565b9050919050565b7f4173736574206e6f7420737570706f72746564000000000000000000000000005f82015250565b5f614f54601383614524565b9150614f5f82614f20565b602082019050919050565b5f6020820190508181035f830152614f8181614f48565b9050919050565b7f6e6f20737570706c7900000000000000000000000000000000000000000000005f82015250565b5f614fbc600983614524565b9150614fc782614f88565b602082019050919050565b5f6020820190508181035f830152614fe981614fb0565b9050919050565b7f737570706c79206e6f74206163746976650000000000000000000000000000005f82015250565b5f615024601183614524565b915061502f82614ff0565b602082019050919050565b5f6020820190508181035f83015261505181615018565b9050919050565b5f61506282613c89565b91507fffffffffffffffffffffffffffffffffffffffffffffffffffffffffffffffff82036150945761509361465c565b5b600182019050919050565b5f819050919050565b6150b96150b482613c56565b61509f565b82525050565b5f819050919050565b6150d96150d482613c89565b6150bf565b82525050565b5f6150ea8287614a04565b6014820191506150fa8286614a04565b60148201915061510a82856150a8565b60208201915061511a82846150c8565b60208201915081905095945050505050565b5f60608201905061513f5f830186613db9565b61514c6020830185613dc8565b6151596040830184613d66565b949350505050565b7f6e6f7420796f757220737570706c7900000000000000000000000000000000005f82015250565b5f615195600f83614524565b91506151a082615161565b602082019050919050565b5f6020820190508181035f8301526151c281615189565b9050919050565b7f496e73756666696369656e7420617661696c61626c6520636f6c6c61746572615f8201527f6c00000000000000000000000000000000000000000000000000000000000000602082015250565b5f615223602183614524565b915061522e826151c9565b604082019050919050565b5f6020820190508181035f83015261525081615217565b9050919050565b5f60408201905061526a5f830185613db9565b6152776020830184613d66565b9392505050565b5f8151905061528c81614261565b92915050565b5f602082840312156152a7576152a6613c4e565b5b5f6152b48482850161527e565b91505092915050565b5f6060820190506152d05f830186613db9565b6152dd6020830185613d66565b6152ea6040830184613d66565b949350505050565b7f416d6f756e74203e2030000000000000000000000000000000000000000000005f82015250565b5f615326600a83614524565b9150615331826152f2565b602082019050919050565b5f6020820190508181035f8301526153538161531a565b9050919050565b5f60608201905061536d5f830186613db9565b61537a6020830185613db9565b6153876040830184613d66565b949350505050565b5f819050919050565b5f61ffff82169050919050565b5f6153bf6153ba6153b58461538f565b6143de565b615398565b9050919050565b6153cf816153a5565b82525050565b5f6080820190506153e85f830187613db9565b6153f56020830186613d66565b6154026040830185613db9565b61540f60608301846153c6565b95945050505050565b7f696e73756666696369656e7420636f6c6c61746572616c0000000000000000005f82015250565b5f61544c601783614524565b915061545782615418565b602082019050919050565b5f6020820190508181035f83015261547981615440565b9050919050565b5f61548b8286614a04565b60148201915061549b8285614a04565b6014820191506154ab82846150a8565b60208201915081905094935050505056fea2646970667358221220235b9410246b21d771e48316b6ddede5222e761ea1b2062f62ac223f830ee79964736f6c634300081e0033","linkReferences":{}},"methodIdentifiers":{"aavePool()":"a03e4bc3","addSupportedAsset(address,uint8,bool)":"50f3ea35","addSupportedCurrency(bytes32,uint8,address,uint256,uint256,uint256,uint256,uint256,uint256)":"aa70059f","borrow(address,uint256,bytes32)":"aee582f9","borrowRequests(uint256)":"50d282fc","borrows(uint256)":"191e9d7c","cancelBorrowRequest(uint256)":"e9d1f8df","cancelBorrowRequests(uint256[])":"94e98074","convertAssetToCurrency(bytes32,uint256,address)":"65affb9b","convertCurrencyToAsset(bytes32,uint256,address)":"09db647b","dynamicBorrowRate(bytes32,address)":"8c47ade6","liquidate(uint256)":"415f1240","owner()":"8da5cb5b","processBorrowRequest(uint256)":"14c307e3","processBorrowRequests(uint256[])":"ca9caa39","renounceOwnership()":"715018a6","repayLoan(uint256,uint256)":"8a700b53","supplies(uint256)":"26f1a1fd","supply(address,uint256)":"f2b9fdb8","supportedAssets(address)":"bd81579e","supportedCurrencies(bytes32)":"3db1763f","transferOwnership(address)":"f2fde38b","updateBorrowIndex(bytes32,address)":"3670172d","updateSupportedAsset(address,uint8,bool)":"a5e87599","updateSupportedCurrency(bytes32,uint8,address,uint256,uint256,uint256,uint256,uint256,uint256)":"4c1cd84a","userNonces(address)":"2f7801f4","withdrawSupply(uint256,uint256)":"ccf93ab1"},"id":42}